{
  "_format": "hh-sol-artifact-1",
  "contractName": "Board",
  "sourceName": "contracts/Board.sol",
  "abi": [
    {
      "inputs": [
        {
          "internalType": "address",
          "name": "initialOwner",
          "type": "address"
        },
        {
          "internalType": "address",
          "name": "_monToken",
          "type": "address"
        }
      ],
      "stateMutability": "nonpayable",
      "type": "constructor"
    },
    {
      "inputs": [
        {
          "internalType": "address",
          "name": "owner",
          "type": "address"
        }
      ],
      "name": "OwnableInvalidOwner",
      "type": "error"
    },
    {
      "inputs": [
        {
          "internalType": "address",
          "name": "account",
          "type": "address"
        }
      ],
      "name": "OwnableUnauthorizedAccount",
      "type": "error"
    },
    {
      "anonymous": false,
      "inputs": [
        {
          "indexed": true,
          "internalType": "address",
          "name": "user",
          "type": "address"
        },
        {
          "indexed": false,
          "internalType": "string",
          "name": "nickname",
          "type": "string"
        }
      ],
      "name": "NicknameSet",
      "type": "event"
    },
    {
      "anonymous": false,
      "inputs": [
        {
          "indexed": true,
          "internalType": "address",
          "name": "previousOwner",
          "type": "address"
        },
        {
          "indexed": true,
          "internalType": "address",
          "name": "newOwner",
          "type": "address"
        }
      ],
      "name": "OwnershipTransferred",
      "type": "event"
    },
    {
      "anonymous": false,
      "inputs": [
        {
          "indexed": true,
          "internalType": "uint256",
          "name": "postId",
          "type": "uint256"
        },
        {
          "indexed": true,
          "internalType": "address",
          "name": "author",
          "type": "address"
        },
        {
          "indexed": false,
          "internalType": "uint256",
          "name": "monAmount",
          "type": "uint256"
        }
      ],
      "name": "PostCreated",
      "type": "event"
    },
    {
      "anonymous": false,
      "inputs": [
        {
          "indexed": true,
          "internalType": "uint256",
          "name": "postId",
          "type": "uint256"
        },
        {
          "indexed": true,
          "internalType": "address",
          "name": "liker",
          "type": "address"
        }
      ],
      "name": "PostLiked",
      "type": "event"
    },
    {
      "inputs": [],
      "name": "MAX_CONTENT_LENGTH",
      "outputs": [
        {
          "internalType": "uint256",
          "name": "",
          "type": "uint256"
        }
      ],
      "stateMutability": "view",
      "type": "function"
    },
    {
      "inputs": [],
      "name": "MAX_NICKNAME_LENGTH",
      "outputs": [
        {
          "internalType": "uint256",
          "name": "",
          "type": "uint256"
        }
      ],
      "stateMutability": "view",
      "type": "function"
    },
    {
      "inputs": [],
      "name": "MAX_TITLE_LENGTH",
      "outputs": [
        {
          "internalType": "uint256",
          "name": "",
          "type": "uint256"
        }
      ],
      "stateMutability": "view",
      "type": "function"
    },
    {
      "inputs": [
        {
          "internalType": "string",
          "name": "_title",
          "type": "string"
        },
        {
          "internalType": "string",
          "name": "_content",
          "type": "string"
        },
        {
          "internalType": "uint256",
          "name": "_monAmount",
          "type": "uint256"
        }
      ],
      "name": "createPost",
      "outputs": [],
      "stateMutability": "nonpayable",
      "type": "function"
    },
    {
      "inputs": [
        {
          "internalType": "uint256",
          "name": "_postId",
          "type": "uint256"
        }
      ],
      "name": "getPost",
      "outputs": [
        {
          "internalType": "address",
          "name": "author",
          "type": "address"
        },
        {
          "internalType": "string",
          "name": "authorNickname",
          "type": "string"
        },
        {
          "internalType": "string",
          "name": "title",
          "type": "string"
        },
        {
          "internalType": "string",
          "name": "content",
          "type": "string"
        },
        {
          "internalType": "uint256",
          "name": "timestamp",
          "type": "uint256"
        },
        {
          "internalType": "uint256",
          "name": "likes",
          "type": "uint256"
        },
        {
          "internalType": "uint256",
          "name": "monAmount",
          "type": "uint256"
        }
      ],
      "stateMutability": "view",
      "type": "function"
    },
    {
      "inputs": [],
      "name": "getPostCount",
      "outputs": [
        {
          "internalType": "uint256",
          "name": "",
          "type": "uint256"
        }
      ],
      "stateMutability": "view",
      "type": "function"
    },
    {
      "inputs": [],
      "name": "getTopPosts",
      "outputs": [
        {
          "internalType": "uint256[]",
          "name": "",
          "type": "uint256[]"
        }
      ],
      "stateMutability": "view",
      "type": "function"
    },
    {
      "inputs": [
        {
          "internalType": "uint256",
          "name": "_postId",
          "type": "uint256"
        }
      ],
      "name": "likePost",
      "outputs": [],
      "stateMutability": "nonpayable",
      "type": "function"
    },
    {
      "inputs": [],
      "name": "monToken",
      "outputs": [
        {
          "internalType": "contract IERC20",
          "name": "",
          "type": "address"
        }
      ],
      "stateMutability": "view",
      "type": "function"
    },
    {
      "inputs": [
        {
          "internalType": "address",
          "name": "",
          "type": "address"
        }
      ],
      "name": "nicknames",
      "outputs": [
        {
          "internalType": "string",
          "name": "",
          "type": "string"
        }
      ],
      "stateMutability": "view",
      "type": "function"
    },
    {
      "inputs": [],
      "name": "owner",
      "outputs": [
        {
          "internalType": "address",
          "name": "",
          "type": "address"
        }
      ],
      "stateMutability": "view",
      "type": "function"
    },
    {
      "inputs": [
        {
          "internalType": "uint256",
          "name": "",
          "type": "uint256"
        }
      ],
      "name": "posts",
      "outputs": [
        {
          "internalType": "address",
          "name": "author",
          "type": "address"
        },
        {
          "internalType": "string",
          "name": "authorNickname",
          "type": "string"
        },
        {
          "internalType": "string",
          "name": "title",
          "type": "string"
        },
        {
          "internalType": "string",
          "name": "content",
          "type": "string"
        },
        {
          "internalType": "uint256",
          "name": "timestamp",
          "type": "uint256"
        },
        {
          "internalType": "uint256",
          "name": "likes",
          "type": "uint256"
        },
        {
          "internalType": "uint256",
          "name": "monAmount",
          "type": "uint256"
        }
      ],
      "stateMutability": "view",
      "type": "function"
    },
    {
      "inputs": [],
      "name": "renounceOwnership",
      "outputs": [],
      "stateMutability": "nonpayable",
      "type": "function"
    },
    {
      "inputs": [
        {
          "internalType": "string",
          "name": "_nickname",
          "type": "string"
        }
      ],
      "name": "setNickname",
      "outputs": [],
      "stateMutability": "nonpayable",
      "type": "function"
    },
    {
      "inputs": [],
      "name": "totalFees",
      "outputs": [
        {
          "internalType": "uint256",
          "name": "",
          "type": "uint256"
        }
      ],
      "stateMutability": "view",
      "type": "function"
    },
    {
      "inputs": [
        {
          "internalType": "address",
          "name": "newOwner",
          "type": "address"
        }
      ],
      "name": "transferOwnership",
      "outputs": [],
      "stateMutability": "nonpayable",
      "type": "function"
    },
    {
      "inputs": [],
      "name": "withdrawFees",
      "outputs": [],
      "stateMutability": "nonpayable",
      "type": "function"
    }
  ],
  "bytecode": "0x60806040523480156200001157600080fd5b50604051620016bb380380620016bb833981016040819052620000349162000104565b816001600160a01b0381166200006457604051631e4fbdf760e01b81526000600482015260240160405180910390fd5b6200006f8162000097565b50600180546001600160a01b0319166001600160a01b0392909216919091179055506200013c565b600080546001600160a01b038381166001600160a01b0319831681178455604051919092169283917f8be0079c531659141344cd1fd0a4f28419497f9722a3daafe3b4186f6b6457e09190a35050565b80516001600160a01b0381168114620000ff57600080fd5b919050565b600080604083850312156200011857600080fd5b6200012383620000e7565b91506200013360208401620000e7565b90509250929050565b61156f806200014c6000396000f3fe608060405234801561001057600080fd5b506004361061010b5760003560e01c8063715018a6116100a2578063909151b511610071578063909151b5146101fd578063bcc954071461021d578063e8f100bf14610225578063f2fde38b1461022d578063f9afac551461024057600080fd5b8063715018a6146101be578063725009d3146101c6578063742d931a146101d95780638da5cb5b146101ec57600080fd5b80632ef9a160116100de5780632ef9a1601461017057806340731c2414610178578063476343ee1461018b57806363eb9f901461019357600080fd5b806305b746b5146101105780630b1e7f831461012c57806313114a9d146101525780631c5d9faa1461015b575b600080fd5b6101196101f481565b6040519081526020015b60405180910390f35b61013f61013a366004611085565b610255565b60405161012397969594939291906110e4565b61011960045481565b61016e6101693660046111f1565b610445565b005b610119603281565b61013f610186366004611085565b61053f565b61016e6107ed565b6001546101a6906001600160a01b031681565b6040516001600160a01b039091168152602001610123565b61016e6108d7565b61016e6101d4366004611085565b6108eb565b61016e6101e736600461122e565b610998565b6000546001600160a01b03166101a6565b61021061020b36600461129b565b610d69565b60405161012391906112cb565b600254610119565b610119601481565b61016e61023b36600461129b565b610e03565b610248610e3e565b60405161012391906112de565b6002818154811061026557600080fd5b6000918252602090912060079091020180546001820180546001600160a01b0390921693509061029490611322565b80601f01602080910402602001604051908101604052809291908181526020018280546102c090611322565b801561030d5780601f106102e25761010080835404028352916020019161030d565b820191906000526020600020905b8154815290600101906020018083116102f057829003601f168201915b50505050509080600201805461032290611322565b80601f016020809104026020016040519081016040528092919081815260200182805461034e90611322565b801561039b5780601f106103705761010080835404028352916020019161039b565b820191906000526020600020905b81548152906001019060200180831161037e57829003601f168201915b5050505050908060030180546103b090611322565b80601f01602080910402602001604051908101604052809291908181526020018280546103dc90611322565b80156104295780601f106103fe57610100808354040283529160200191610429565b820191906000526020600020905b81548152906001019060200180831161040c57829003601f168201915b5050505050908060040154908060050154908060060154905087565b600081511161049b5760405162461bcd60e51b815260206004820152601860248201527f4e69636b6e616d652063616e6e6f7420626520656d707479000000000000000060448201526064015b60405180910390fd5b6014815111156104e15760405162461bcd60e51b81526020600482015260116024820152704e69636b6e616d6520746f6f206c6f6e6760781b6044820152606401610492565b3360009081526003602052604090206104fa82826113ad565b50336001600160a01b03167fcc45f9a9a33b4d5decc06957c68031dcffbd459a66e9bf07d36c26cbd6ce1c6c8260405161053491906112cb565b60405180910390a250565b60006060806060600080600060028054905088106105955760405162461bcd60e51b8152602060048201526013602482015272141bdcdd08191bd95cc81b9bdd08195e1a5cdd606a1b6044820152606401610492565b6000600289815481106105aa576105aa61146d565b60009182526020918290206040805160e0810190915260079092020180546001600160a01b0316825260018101805492939192918401916105ea90611322565b80601f016020809104026020016040519081016040528092919081815260200182805461061690611322565b80156106635780601f1061063857610100808354040283529160200191610663565b820191906000526020600020905b81548152906001019060200180831161064657829003601f168201915b5050505050815260200160028201805461067c90611322565b80601f01602080910402602001604051908101604052809291908181526020018280546106a890611322565b80156106f55780601f106106ca576101008083540402835291602001916106f5565b820191906000526020600020905b8154815290600101906020018083116106d857829003601f168201915b5050505050815260200160038201805461070e90611322565b80601f016020809104026020016040519081016040528092919081815260200182805461073a90611322565b80156107875780601f1061075c57610100808354040283529160200191610787565b820191906000526020600020905b81548152906001019060200180831161076a57829003601f168201915b5050505050815260200160048201548152602001600582015481526020016006820154815250509050806000015181602001518260400151836060015184608001518560a001518660c00151975097509750975097509750975050919395979092949650565b6107f5611008565b6004805460009091556001546001600160a01b031663a9059cbb6108216000546001600160a01b031690565b6040516001600160e01b031960e084901b1681526001600160a01b039091166004820152602481018490526044016020604051808303816000875af115801561086e573d6000803e3d6000fd5b505050506040513d601f19601f820116820180604052508101906108929190611483565b6108d45760405162461bcd60e51b8152602060048201526013602482015272119959481d1c985b9cd9995c8819985a5b1959606a1b6044820152606401610492565b50565b6108df611008565b6108e96000611035565b565b60025481106109325760405162461bcd60e51b8152602060048201526013602482015272141bdcdd08191bd95cc81b9bdd08195e1a5cdd606a1b6044820152606401610492565b600281815481106109455761094561146d565b600091825260208220600560079092020101805491610963836114bb565b9091555050604051339082907fcf765d6f163c9b0d832e2a94f4c8e9bffd32a2c3ca5fdbb8cc67b5fe1441f41390600090a350565b60008351116109e15760405162461bcd60e51b81526020600482015260156024820152745469746c652063616e6e6f7420626520656d70747960581b6044820152606401610492565b6000825111610a325760405162461bcd60e51b815260206004820152601760248201527f436f6e74656e742063616e6e6f7420626520656d7074790000000000000000006044820152606401610492565b603283511115610a755760405162461bcd60e51b815260206004820152600e60248201526d5469746c6520746f6f206c6f6e6760901b6044820152606401610492565b6101f482511115610abb5760405162461bcd60e51b815260206004820152601060248201526f436f6e74656e7420746f6f206c6f6e6760801b6044820152606401610492565b8015610bbc576001546040516323b872dd60e01b8152336004820152306024820152604481018390526001600160a01b03909116906323b872dd906064016020604051808303816000875af1158015610b18573d6000803e3d6000fd5b505050506040513d601f19601f82011682018060405250810190610b3c9190611483565b610b885760405162461bcd60e51b815260206004820152601960248201527f4d4f4e20746f6b656e207472616e73666572206661696c6564000000000000006044820152606401610492565b60006064610b978360036114d4565b610ba191906114f1565b90508060046000828254610bb59190611513565b9091555050505b600280546040805160e0810182523380825260009081526003602090815292902080549394939192830191610bf090611322565b80601f0160208091040260200160405190810160405280929190818152602001828054610c1c90611322565b8015610c695780601f10610c3e57610100808354040283529160200191610c69565b820191906000526020600020905b815481529060010190602001808311610c4c57829003601f168201915b505050918352505060208082018890526040820187905242606083015260006080830181905260a090920186905283546001808201865594835291819020835160079093020180546001600160a01b0319166001600160a01b039093169290921782558201519192909190820190610ce190826113ad565b5060408201516002820190610cf690826113ad565b5060608201516003820190610d0b90826113ad565b506080820151600482015560a0820151600582015560c090910151600690910155604051828152339082907f35e9d1576a3cf0faf0d7e6d6fd53fcfebe5a51f7043238e20ff4125e5df657739060200160405180910390a350505050565b60036020526000908152604090208054610d8290611322565b80601f0160208091040260200160405190810160405280929190818152602001828054610dae90611322565b8015610dfb5780601f10610dd057610100808354040283529160200191610dfb565b820191906000526020600020905b815481529060010190602001808311610dde57829003601f168201915b505050505081565b610e0b611008565b6001600160a01b038116610e3557604051631e4fbdf760e01b815260006004820152602401610492565b6108d481611035565b60025460609060008167ffffffffffffffff811115610e5f57610e5f61114e565b604051908082528060200260200182016040528015610e88578160200160208202803683370190505b50905060005b82811015610ebc5780828281518110610ea957610ea961146d565b6020908102919091010152600101610e8e565b5060005b610ecb600184611526565b81101561100157806000610ee0826001611513565b90505b84811015610f79576002848381518110610eff57610eff61146d565b602002602001015181548110610f1757610f1761146d565b9060005260206000209060070201600601546002858381518110610f3d57610f3d61146d565b602002602001015181548110610f5557610f5561146d565b9060005260206000209060070201600601541115610f71578091505b600101610ee3565b50818114610ff8576000838381518110610f9557610f9561146d565b60200260200101519050838281518110610fb157610fb161146d565b6020026020010151848481518110610fcb57610fcb61146d565b60200260200101818152505080848381518110610fea57610fea61146d565b602002602001018181525050505b50600101610ec0565b5092915050565b6000546001600160a01b031633146108e95760405163118cdaa760e01b8152336004820152602401610492565b600080546001600160a01b038381166001600160a01b0319831681178455604051919092169283917f8be0079c531659141344cd1fd0a4f28419497f9722a3daafe3b4186f6b6457e09190a35050565b60006020828403121561109757600080fd5b5035919050565b6000815180845260005b818110156110c4576020818501810151868301820152016110a8565b506000602082860101526020601f19601f83011685010191505092915050565b6001600160a01b038816815260e0602082018190526000906111089083018961109e565b828103604084015261111a818961109e565b9050828103606084015261112e818861109e565b6080840196909652505060a081019290925260c090910152949350505050565b634e487b7160e01b600052604160045260246000fd5b600082601f83011261117557600080fd5b813567ffffffffffffffff808211156111905761119061114e565b604051601f8301601f19908116603f011681019082821181831017156111b8576111b861114e565b816040528381528660208588010111156111d157600080fd5b836020870160208301376000602085830101528094505050505092915050565b60006020828403121561120357600080fd5b813567ffffffffffffffff81111561121a57600080fd5b61122684828501611164565b949350505050565b60008060006060848603121561124357600080fd5b833567ffffffffffffffff8082111561125b57600080fd5b61126787838801611164565b9450602086013591508082111561127d57600080fd5b5061128a86828701611164565b925050604084013590509250925092565b6000602082840312156112ad57600080fd5b81356001600160a01b03811681146112c457600080fd5b9392505050565b6020815260006112c4602083018461109e565b6020808252825182820181905260009190848201906040850190845b81811015611316578351835292840192918401916001016112fa565b50909695505050505050565b600181811c9082168061133657607f821691505b60208210810361135657634e487b7160e01b600052602260045260246000fd5b50919050565b601f8211156113a8576000816000526020600020601f850160051c810160208610156113855750805b601f850160051c820191505b818110156113a457828155600101611391565b5050505b505050565b815167ffffffffffffffff8111156113c7576113c761114e565b6113db816113d58454611322565b8461135c565b602080601f83116001811461141057600084156113f85750858301515b600019600386901b1c1916600185901b1785556113a4565b600085815260208120601f198616915b8281101561143f57888601518255948401946001909101908401611420565b508582101561145d5787850151600019600388901b60f8161c191681555b5050505050600190811b01905550565b634e487b7160e01b600052603260045260246000fd5b60006020828403121561149557600080fd5b815180151581146112c457600080fd5b634e487b7160e01b600052601160045260246000fd5b6000600182016114cd576114cd6114a5565b5060010190565b80820281158282048414176114eb576114eb6114a5565b92915050565b60008261150e57634e487b7160e01b600052601260045260246000fd5b500490565b808201808211156114eb576114eb6114a5565b818103818111156114eb576114eb6114a556fea26469706673582212208c69b5bc569da20c9ad051e962596d3d415ed069e722cd9bbcbcab2b25a48da564736f6c63430008160033",
  "linkReferences": {},
  "deployedLinkReferences": {}
}