{"contracts/SlotMachine.sol":{"SlotMachine":{"abi":[{"inputs":[{"internalType":"address","name":"_monToken","type":"address"},{"internalType":"address","name":"initialOwner","type":"address"}],"stateMutability":"nonpayable","type":"constructor"},{"inputs":[{"internalType":"address","name":"owner","type":"address"}],"name":"OwnableInvalidOwner","type":"error"},{"inputs":[{"internalType":"address","name":"account","type":"address"}],"name":"OwnableUnauthorizedAccount","type":"error"},{"anonymous":false,"inputs":[{"indexed":true,"internalType":"address","name":"player","type":"address"},{"indexed":false,"internalType":"uint256","name":"amount","type":"uint256"}],"name":"Jackpot","type":"event"},{"anonymous":false,"inputs":[{"indexed":false,"internalType":"uint256","name":"amount","type":"uint256"}],"name":"JackpotPoolIncreased","type":"event"},{"anonymous":false,"inputs":[{"indexed":false,"internalType":"uint256","name":"amount","type":"uint256"}],"name":"OwnerPoolIncreased","type":"event"},{"anonymous":false,"inputs":[{"indexed":true,"internalType":"address","name":"previousOwner","type":"address"},{"indexed":true,"internalType":"address","name":"newOwner","type":"address"}],"name":"OwnershipTransferred","type":"event"},{"anonymous":false,"inputs":[{"indexed":true,"internalType":"address","name":"player","type":"address"},{"indexed":false,"internalType":"uint256","name":"betAmount","type":"uint256"},{"indexed":false,"internalType":"uint8[3]","name":"result","type":"uint8[3]"},{"indexed":false,"internalType":"uint256","name":"winAmount","type":"uint256"}],"name":"Spin","type":"event"},{"inputs":[],"name":"HOUSE_EDGE","outputs":[{"internalType":"uint256","name":"","type":"uint256"}],"stateMutability":"view","type":"function"},{"inputs":[],"name":"JACKPOT_POOL_PERCENTAGE","outputs":[{"internalType":"uint256","name":"","type":"uint256"}],"stateMutability":"view","type":"function"},{"inputs":[],"name":"MAX_BET","outputs":[{"internalType":"uint256","name":"","type":"uint256"}],"stateMutability":"view","type":"function"},{"inputs":[],"name":"MIN_BET","outputs":[{"internalType":"uint256","name":"","type":"uint256"}],"stateMutability":"view","type":"function"},{"inputs":[],"name":"OWNER_SHARE","outputs":[{"internalType":"uint256","name":"","type":"uint256"}],"stateMutability":"view","type":"function"},{"inputs":[{"internalType":"address","name":"","type":"address"}],"name":"allowances","outputs":[{"internalType":"uint256","name":"","type":"uint256"}],"stateMutability":"view","type":"function"},{"inputs":[{"internalType":"address","name":"","type":"address"}],"name":"consecutiveWins","outputs":[{"internalType":"uint256","name":"","type":"uint256"}],"stateMutability":"view","type":"function"},{"inputs":[{"internalType":"uint256","name":"amount","type":"uint256"}],"name":"depositJackpot","outputs":[],"stateMutability":"nonpayable","type":"function"},{"inputs":[],"name":"getJackpotPool","outputs":[{"internalType":"uint256","name":"","type":"uint256"}],"stateMutability":"view","type":"function"},{"inputs":[],"name":"getOwnerPool","outputs":[{"internalType":"uint256","name":"","type":"uint256"}],"stateMutability":"view","type":"function"},{"inputs":[],"name":"getWinCombinations","outputs":[{"components":[{"internalType":"enum SlotMachine.Symbol[3]","name":"symbols","type":"uint8[3]"},{"internalType":"uint256","name":"multiplier","type":"uint256"}],"internalType":"struct SlotMachine.WinCombination[]","name":"","type":"tuple[]"}],"stateMutability":"view","type":"function"},{"inputs":[],"name":"jackpotPool","outputs":[{"internalType":"uint256","name":"","type":"uint256"}],"stateMutability":"view","type":"function"},{"inputs":[{"internalType":"address","name":"","type":"address"}],"name":"lastWinTime","outputs":[{"internalType":"uint256","name":"","type":"uint256"}],"stateMutability":"view","type":"function"},{"inputs":[],"name":"monToken","outputs":[{"internalType":"contract IERC20","name":"","type":"address"}],"stateMutability":"view","type":"function"},{"inputs":[],"name":"owner","outputs":[{"internalType":"address","name":"","type":"address"}],"stateMutability":"view","type":"function"},{"inputs":[],"name":"ownerPool","outputs":[{"internalType":"uint256","name":"","type":"uint256"}],"stateMutability":"view","type":"function"},{"inputs":[],"name":"renounceOwnership","outputs":[],"stateMutability":"nonpayable","type":"function"},{"inputs":[{"internalType":"uint256","name":"betAmount","type":"uint256"}],"name":"spin","outputs":[],"stateMutability":"nonpayable","type":"function"},{"inputs":[{"internalType":"address","name":"newOwner","type":"address"}],"name":"transferOwnership","outputs":[],"stateMutability":"nonpayable","type":"function"},{"inputs":[{"internalType":"uint256","name":"","type":"uint256"}],"name":"winCombinations","outputs":[{"internalType":"uint256","name":"multiplier","type":"uint256"}],"stateMutability":"view","type":"function"},{"inputs":[{"internalType":"uint256","name":"amount","type":"uint256"}],"name":"withdraw","outputs":[],"stateMutability":"nonpayable","type":"function"}],"evm":{"bytecode":{"linkReferences":{},"object":"60806040523480156200001157600080fd5b50604051620013b2380380620013b2833981016040819052620000349162000432565b806001600160a01b0381166200006457604051631e4fbdf760e01b81526000600482015260240160405180910390fd5b6200006f8162000303565b506001808055600280546001600160a01b0385166001600160a01b03199091161781556040805160a081018252600091810182815260608201839052608082018390528152600360208201819052805494850181559182905280519093909202600080516020620013928339815191520191620000ef9183919062000353565b506020918201516001918201556040805160a081018252908101828152606082018390526080820183905281526005928101929092526003805491820181556000819052825160029092026000805160206200139283398151915201916200015a9183919062000353565b506020918201516001918201556040805160a081018252600391810182815260608201839052608082018390528152600a9381019390935280549182018155600081905282516002909202600080516020620013928339815191520191620001c59183919062000353565b50602091909101516001909101556040805160a08101825260039181908101806004815260200160048152602001600490528152600760209182015282546001810184556000938452922081519192600202019062000228908290600362000353565b50602091909101516001909101556040805160a0810182526003918190810180600581526020016005815260200160059052815260046020918201528254600181018455600093845292208151919260020201906200028b908290600362000353565b50602091909101516001909101556040805160a081018252600391819081018060028152602001600281526020016002905281526064602091820152825460018101845560009384529220815191926002020190620002ee908290600362000353565b50602082015181600101555050505062000480565b600080546001600160a01b038381166001600160a01b0319831681178455604051919092169283917f8be0079c531659141344cd1fd0a4f28419497f9722a3daafe3b4186f6b6457e09190a35050565b600183019183908215620003ec5791602002820160005b83821115620003bb57835183826101000a81548160ff021916908360058111156200039957620003996200046a565b021790555092602001926001016020816000010492830192600103026200036a565b8015620003ea5782816101000a81549060ff0219169055600101602081600001049283019260010302620003bb565b505b50620003fa929150620003fe565b5090565b5b80821115620003fa5760008155600101620003ff565b80516001600160a01b03811681146200042d57600080fd5b919050565b600080604083850312156200044657600080fd5b620004518362000415565b9150620004616020840162000415565b90509250929050565b634e487b7160e01b600052602160045260246000fd5b610f0280620004906000396000f3fe608060405234801561001057600080fd5b50600436106101375760003560e01c8063715018a6116100b8578063ae445aef1161007c578063ae445aef14610258578063b05b32ae1461026b578063d167ed7114610274578063dc17b37c14610287578063f13e94bb146102a7578063f2fde38b146102af57600080fd5b8063715018a6146102145780637e95b5231461021c5780638da5cb5b1461022c5780638daaaa2f1461023d578063a5b6ea8f1461024557600080fd5b80632b65e040116100ff5780632b65e040146101b45780632e1a7d4d146101bd57806363eb9f90146101d25780636540742f146101fd5780636a1c6e781461020c57600080fd5b8063143af9071461013c5780631814add11461016f5780632531455a146101845780632ac488bc1461018c5780632b603c7114610194575b600080fd5b61015c61014a366004610cb3565b60046020526000908152604090205481565b6040519081526020015b60405180910390f35b6101776102c2565b6040516101669190610cf9565b60065461015c565b61015c600a81565b61015c6101a2366004610cb3565b60086020526000908152604090205481565b61015c60065481565b6101d06101cb366004610d89565b610387565b005b6002546101e5906001600160a01b031681565b6040516001600160a01b039091168152602001610166565b61015c670de0b6b3a764000081565b61015c600281565b6101d06104d4565b61015c68056bc75e2d6310000081565b6000546001600160a01b03166101e5565b61015c600581565b6101d0610253366004610d89565b6104e8565b61015c610266366004610d89565b610aa5565b61015c60055481565b6101d0610282366004610d89565b610ace565b61015c610295366004610cb3565b60076020526000908152604090205481565b60055461015c565b6101d06102bd366004610cb3565b610bda565b60606003805480602002602001604051908101604052809291908181526020016000905b8282101561037e576000848152602090206040805160a08101825291600285020190829081018260038282826020028201916000905b82829054906101000a900460ff16600581111561033b5761033b610ce3565b81526020600192830181810494850194909303909202910180841161031c57905050505050508152602001600182015481525050815260200190600101906102e6565b50505050905090565b61038f610c18565b6006548111156103e65760405162461bcd60e51b815260206004820152601760248201527f496e73756666696369656e74206f776e657220706f6f6c00000000000000000060448201526064015b60405180910390fd5b6002546001600160a01b031663a9059cbb6104096000546001600160a01b031690565b6040516001600160e01b031960e084901b1681526001600160a01b039091166004820152602481018490526044016020604051808303816000875af1158015610456573d6000803e3d6000fd5b505050506040513d601f19601f8201168201806040525081019061047a9190610da2565b6104ba5760405162461bcd60e51b815260206004820152601160248201527015da5d1a191c985dd85b0819985a5b1959607a1b60448201526064016103dd565b80600660008282546104cc9190610dda565b909155505050565b6104dc610c18565b6104e66000610c45565b565b60026001540361053a5760405162461bcd60e51b815260206004820152601f60248201527f5265656e7472616e637947756172643a207265656e7472616e742063616c6c0060448201526064016103dd565b6002600155806105965760405162461bcd60e51b815260206004820152602160248201527f42657420616d6f756e74206d7573742062652067726561746572207468616e206044820152600360fc1b60648201526084016103dd565b6002546040516323b872dd60e01b8152336004820152306024820152604481018390526001600160a01b03909116906323b872dd906064016020604051808303816000875af11580156105ed573d6000803e3d6000fd5b505050506040513d601f19601f820116820180604052508101906106119190610da2565b6106555760405162461bcd60e51b8152602060048201526015602482015274151bdad95b881d1c985b9cd9995c8819985a5b1959605a1b60448201526064016103dd565b60006064610664600284610df3565b61066e9190610e20565b90506000606461067f600a85610df3565b6106899190610e20565b90506000606461069a600586610df3565b6106a49190610e20565b905082600660008282546106b89190610e34565b9250508190555081600560008282546106d19190610e34565b90915550506040518381527fe2268c1fa6d6b5bbecae96fa09cfff04c4da2304b1375ccc3e3bb7da18e445ce9060200160405180910390a16040518281527f1105274119b8692822c85f4931165e2d0567a223bc70c1377453861e4355a9e09060200160405180910390a1600042443360405160200161077693929190928352602083019190915260601b6bffffffffffffffffffffffff1916604082015260540190565b6040516020818303038152906040528051906020012060001c9050610799610c95565b60008060005b60038110156107e95760066107b5826008610df3565b86901c6107c29190610e47565b8482600381106107d4576107d4610e5b565b60ff909216602092909202015260010161079f565b506020830151835160ff908116911614801561081357506040830151602084015160ff9081169116145b156108ba5750815160019060ff1660000361084657606461083589600a610df3565b61083f9190610e20565b915061091a565b825160ff1660010361085f57606461083589600f610df3565b825160ff1660020361087b57600580546000909155915061091a565b825160ff16600303610894576064610835896014610df3565b825160ff166004036108ad576064610835896019610df3565b606461083589601e610df3565b6020830151835160ff908116911614806108e257506040830151602084015160ff9081169116145b806108f857506040830151835160ff9081169116145b1561091a57506001606461090d896005610df3565b6109179190610e20565b91505b8015610984573360009081526004602052604090205460649061093d9084610df3565b610948906005610df3565b6109529190610e20565b61095c9083610e34565b33600090815260046020526040812080549294509061097a83610e71565b9190505550610995565b336000908152600460205260408120555b8115610a525760025460405163a9059cbb60e01b8152336004820152602481018490526001600160a01b039091169063a9059cbb906044016020604051808303816000875af11580156109ec573d6000803e3d6000fd5b505050506040513d601f19601f82011682018060405250810190610a109190610da2565b610a525760405162461bcd60e51b815260206004820152601360248201527215da5b881d1c985b9cd9995c8819985a5b1959606a1b60448201526064016103dd565b336001600160a01b03167f75d9296464c1ea8809cb4669516720de6006bf47b8ebf665e9cb59ce6bef67c1898585604051610a8f93929190610e8a565b60405180910390a2505060018055505050505050565b60038181548110610ab557600080fd5b6000918252602090912060016002909202010154905081565b6002546040516323b872dd60e01b8152336004820152306024820152604481018390526001600160a01b03909116906323b872dd906064016020604051808303816000875af1158015610b25573d6000803e3d6000fd5b505050506040513d601f19601f82011682018060405250810190610b499190610da2565b610b8d5760405162461bcd60e51b8152602060048201526015602482015274151bdad95b881d1c985b9cd9995c8819985a5b1959605a1b60448201526064016103dd565b8060056000828254610b9f9190610e34565b90915550506040518181527f1105274119b8692822c85f4931165e2d0567a223bc70c1377453861e4355a9e09060200160405180910390a150565b610be2610c18565b6001600160a01b038116610c0c57604051631e4fbdf760e01b8152600060048201526024016103dd565b610c1581610c45565b50565b6000546001600160a01b031633146104e65760405163118cdaa760e01b81523360048201526024016103dd565b600080546001600160a01b038381166001600160a01b0319831681178455604051919092169283917f8be0079c531659141344cd1fd0a4f28419497f9722a3daafe3b4186f6b6457e09190a35050565b60405180606001604052806003906020820280368337509192915050565b600060208284031215610cc557600080fd5b81356001600160a01b0381168114610cdc57600080fd5b9392505050565b634e487b7160e01b600052602160045260246000fd5b6020808252825182820181905260009190848201906040850190845b81811015610d7d57835180518460005b6003811015610d6057825160068110610d4e57634e487b7160e01b600052602160045260246000fd5b82529188019190880190600101610d25565b505050850151606084015292840192608090920191600101610d15565b50909695505050505050565b600060208284031215610d9b57600080fd5b5035919050565b600060208284031215610db457600080fd5b81518015158114610cdc57600080fd5b634e487b7160e01b600052601160045260246000fd5b81810381811115610ded57610ded610dc4565b92915050565b8082028115828204841417610ded57610ded610dc4565b634e487b7160e01b600052601260045260246000fd5b600082610e2f57610e2f610e0a565b500490565b80820180821115610ded57610ded610dc4565b600082610e5657610e56610e0a565b500690565b634e487b7160e01b600052603260045260246000fd5b600060018201610e8357610e83610dc4565b5060010190565b83815260a0810160208083018560005b6003811015610eba57815160ff1683529183019190830190600101610e9a565b5050505082608083015294935050505056fea26469706673582212208a268faa069b6f752ac237156d2bc594b577fc4edd6d8a29c40c8968b2bc06eb64736f6c63430008160033c2575a0e9e593c00f959f8c92f12db2869c3395a3b0502d05e2516446f71f85b","opcodes":"PUSH1 0x80 PUSH1 0x40 MSTORE CALLVALUE DUP1 ISZERO PUSH3 0x11 JUMPI PUSH1 0x0 DUP1 REVERT JUMPDEST POP PUSH1 0x40 MLOAD PUSH3 0x13B2 CODESIZE SUB DUP1 PUSH3 0x13B2 DUP4 CODECOPY DUP2 ADD PUSH1 0x40 DUP2 SWAP1 MSTORE PUSH3 0x34 SWAP2 PUSH3 0x432 JUMP JUMPDEST DUP1 PUSH1 0x1 PUSH1 0x1 PUSH1 0xA0 SHL SUB DUP2 AND PUSH3 0x64 JUMPI PUSH1 0x40 MLOAD PUSH4 0x1E4FBDF7 PUSH1 0xE0 SHL DUP2 MSTORE PUSH1 0x0 PUSH1 0x4 DUP3 ADD MSTORE PUSH1 0x24 ADD PUSH1 0x40 MLOAD DUP1 SWAP2 SUB SWAP1 REVERT JUMPDEST PUSH3 0x6F DUP2 PUSH3 0x303 JUMP JUMPDEST POP PUSH1 0x1 DUP1 DUP1 SSTORE PUSH1 0x2 DUP1 SLOAD PUSH1 0x1 PUSH1 0x1 PUSH1 0xA0 SHL SUB DUP6 AND PUSH1 0x1 PUSH1 0x1 PUSH1 0xA0 SHL SUB NOT SWAP1 SWAP2 AND OR DUP2 SSTORE PUSH1 0x40 DUP1 MLOAD PUSH1 0xA0 DUP2 ADD DUP3 MSTORE PUSH1 0x0 SWAP2 DUP2 ADD DUP3 DUP2 MSTORE PUSH1 0x60 DUP3 ADD DUP4 SWAP1 MSTORE PUSH1 0x80 DUP3 ADD DUP4 SWAP1 MSTORE DUP2 MSTORE PUSH1 0x3 PUSH1 0x20 DUP3 ADD DUP2 SWAP1 MSTORE DUP1 SLOAD SWAP5 DUP6 ADD DUP2 SSTORE SWAP2 DUP3 SWAP1 MSTORE DUP1 MLOAD SWAP1 SWAP4 SWAP1 SWAP3 MUL PUSH1 0x0 DUP1 MLOAD PUSH1 0x20 PUSH3 0x1392 DUP4 CODECOPY DUP2 MLOAD SWAP2 MSTORE ADD SWAP2 PUSH3 0xEF SWAP2 DUP4 SWAP2 SWAP1 PUSH3 0x353 JUMP JUMPDEST POP PUSH1 0x20 SWAP2 DUP3 ADD MLOAD PUSH1 0x1 SWAP2 DUP3 ADD SSTORE PUSH1 0x40 DUP1 MLOAD PUSH1 0xA0 DUP2 ADD DUP3 MSTORE SWAP1 DUP2 ADD DUP3 DUP2 MSTORE PUSH1 0x60 DUP3 ADD DUP4 SWAP1 MSTORE PUSH1 0x80 DUP3 ADD DUP4 SWAP1 MSTORE DUP2 MSTORE PUSH1 0x5 SWAP3 DUP2 ADD SWAP3 SWAP1 SWAP3 MSTORE PUSH1 0x3 DUP1 SLOAD SWAP2 DUP3 ADD DUP2 SSTORE PUSH1 0x0 DUP2 SWAP1 MSTORE DUP3 MLOAD PUSH1 0x2 SWAP1 SWAP3 MUL PUSH1 0x0 DUP1 MLOAD PUSH1 0x20 PUSH3 0x1392 DUP4 CODECOPY DUP2 MLOAD SWAP2 MSTORE ADD SWAP2 PUSH3 0x15A SWAP2 DUP4 SWAP2 SWAP1 PUSH3 0x353 JUMP JUMPDEST POP PUSH1 0x20 SWAP2 DUP3 ADD MLOAD PUSH1 0x1 SWAP2 DUP3 ADD SSTORE PUSH1 0x40 DUP1 MLOAD PUSH1 0xA0 DUP2 ADD DUP3 MSTORE PUSH1 0x3 SWAP2 DUP2 ADD DUP3 DUP2 MSTORE PUSH1 0x60 DUP3 ADD DUP4 SWAP1 MSTORE PUSH1 0x80 DUP3 ADD DUP4 SWAP1 MSTORE DUP2 MSTORE PUSH1 0xA SWAP4 DUP2 ADD SWAP4 SWAP1 SWAP4 MSTORE DUP1 SLOAD SWAP2 DUP3 ADD DUP2 SSTORE PUSH1 0x0 DUP2 SWAP1 MSTORE DUP3 MLOAD PUSH1 0x2 SWAP1 SWAP3 MUL PUSH1 0x0 DUP1 MLOAD PUSH1 0x20 PUSH3 0x1392 DUP4 CODECOPY DUP2 MLOAD SWAP2 MSTORE ADD SWAP2 PUSH3 0x1C5 SWAP2 DUP4 SWAP2 SWAP1 PUSH3 0x353 JUMP JUMPDEST POP PUSH1 0x20 SWAP2 SWAP1 SWAP2 ADD MLOAD PUSH1 0x1 SWAP1 SWAP2 ADD SSTORE PUSH1 0x40 DUP1 MLOAD PUSH1 0xA0 DUP2 ADD DUP3 MSTORE PUSH1 0x3 SWAP2 DUP2 SWAP1 DUP2 ADD DUP1 PUSH1 0x4 DUP2 MSTORE PUSH1 0x20 ADD PUSH1 0x4 DUP2 MSTORE PUSH1 0x20 ADD PUSH1 0x4 SWAP1 MSTORE DUP2 MSTORE PUSH1 0x7 PUSH1 0x20 SWAP2 DUP3 ADD MSTORE DUP3 SLOAD PUSH1 0x1 DUP2 ADD DUP5 SSTORE PUSH1 0x0 SWAP4 DUP5 MSTORE SWAP3 KECCAK256 DUP2 MLOAD SWAP2 SWAP3 PUSH1 0x2 MUL ADD SWAP1 PUSH3 0x228 SWAP1 DUP3 SWAP1 PUSH1 0x3 PUSH3 0x353 JUMP JUMPDEST POP PUSH1 0x20 SWAP2 SWAP1 SWAP2 ADD MLOAD PUSH1 0x1 SWAP1 SWAP2 ADD SSTORE PUSH1 0x40 DUP1 MLOAD PUSH1 0xA0 DUP2 ADD DUP3 MSTORE PUSH1 0x3 SWAP2 DUP2 SWAP1 DUP2 ADD DUP1 PUSH1 0x5 DUP2 MSTORE PUSH1 0x20 ADD PUSH1 0x5 DUP2 MSTORE PUSH1 0x20 ADD PUSH1 0x5 SWAP1 MSTORE DUP2 MSTORE PUSH1 0x4 PUSH1 0x20 SWAP2 DUP3 ADD MSTORE DUP3 SLOAD PUSH1 0x1 DUP2 ADD DUP5 SSTORE PUSH1 0x0 SWAP4 DUP5 MSTORE SWAP3 KECCAK256 DUP2 MLOAD SWAP2 SWAP3 PUSH1 0x2 MUL ADD SWAP1 PUSH3 0x28B SWAP1 DUP3 SWAP1 PUSH1 0x3 PUSH3 0x353 JUMP JUMPDEST POP PUSH1 0x20 SWAP2 SWAP1 SWAP2 ADD MLOAD PUSH1 0x1 SWAP1 SWAP2 ADD SSTORE PUSH1 0x40 DUP1 MLOAD PUSH1 0xA0 DUP2 ADD DUP3 MSTORE PUSH1 0x3 SWAP2 DUP2 SWAP1 DUP2 ADD DUP1 PUSH1 0x2 DUP2 MSTORE PUSH1 0x20 ADD PUSH1 0x2 DUP2 MSTORE PUSH1 0x20 ADD PUSH1 0x2 SWAP1 MSTORE DUP2 MSTORE PUSH1 0x64 PUSH1 0x20 SWAP2 DUP3 ADD MSTORE DUP3 SLOAD PUSH1 0x1 DUP2 ADD DUP5 SSTORE PUSH1 0x0 SWAP4 DUP5 MSTORE SWAP3 KECCAK256 DUP2 MLOAD SWAP2 SWAP3 PUSH1 0x2 MUL ADD SWAP1 PUSH3 0x2EE SWAP1 DUP3 SWAP1 PUSH1 0x3 PUSH3 0x353 JUMP JUMPDEST POP PUSH1 0x20 DUP3 ADD MLOAD DUP2 PUSH1 0x1 ADD SSTORE POP POP POP POP PUSH3 0x480 JUMP JUMPDEST PUSH1 0x0 DUP1 SLOAD PUSH1 0x1 PUSH1 0x1 PUSH1 0xA0 SHL SUB DUP4 DUP2 AND PUSH1 0x1 PUSH1 0x1 PUSH1 0xA0 SHL SUB NOT DUP4 AND DUP2 OR DUP5 SSTORE PUSH1 0x40 MLOAD SWAP2 SWAP1 SWAP3 AND SWAP3 DUP4 SWAP2 PUSH32 0x8BE0079C531659141344CD1FD0A4F28419497F9722A3DAAFE3B4186F6B6457E0 SWAP2 SWAP1 LOG3 POP POP JUMP JUMPDEST PUSH1 0x1 DUP4 ADD SWAP2 DUP4 SWAP1 DUP3 ISZERO PUSH3 0x3EC JUMPI SWAP2 PUSH1 0x20 MUL DUP3 ADD PUSH1 0x0 JUMPDEST DUP4 DUP3 GT ISZERO PUSH3 0x3BB JUMPI DUP4 MLOAD DUP4 DUP3 PUSH2 0x100 EXP DUP2 SLOAD DUP2 PUSH1 0xFF MUL NOT AND SWAP1 DUP4 PUSH1 0x5 DUP2 GT ISZERO PUSH3 0x399 JUMPI PUSH3 0x399 PUSH3 0x46A JUMP JUMPDEST MUL OR SWAP1 SSTORE POP SWAP3 PUSH1 0x20 ADD SWAP3 PUSH1 0x1 ADD PUSH1 0x20 DUP2 PUSH1 0x0 ADD DIV SWAP3 DUP4 ADD SWAP3 PUSH1 0x1 SUB MUL PUSH3 0x36A JUMP JUMPDEST DUP1 ISZERO PUSH3 0x3EA JUMPI DUP3 DUP2 PUSH2 0x100 EXP DUP2 SLOAD SWAP1 PUSH1 0xFF MUL NOT AND SWAP1 SSTORE PUSH1 0x1 ADD PUSH1 0x20 DUP2 PUSH1 0x0 ADD DIV SWAP3 DUP4 ADD SWAP3 PUSH1 0x1 SUB MUL PUSH3 0x3BB JUMP JUMPDEST POP JUMPDEST POP PUSH3 0x3FA SWAP3 SWAP2 POP PUSH3 0x3FE JUMP JUMPDEST POP SWAP1 JUMP JUMPDEST JUMPDEST DUP1 DUP3 GT ISZERO PUSH3 0x3FA JUMPI PUSH1 0x0 DUP2 SSTORE PUSH1 0x1 ADD PUSH3 0x3FF JUMP JUMPDEST DUP1 MLOAD PUSH1 0x1 PUSH1 0x1 PUSH1 0xA0 SHL SUB DUP2 AND DUP2 EQ PUSH3 0x42D JUMPI PUSH1 0x0 DUP1 REVERT JUMPDEST SWAP2 SWAP1 POP JUMP JUMPDEST PUSH1 0x0 DUP1 PUSH1 0x40 DUP4 DUP6 SUB SLT ISZERO PUSH3 0x446 JUMPI PUSH1 0x0 DUP1 REVERT JUMPDEST PUSH3 0x451 DUP4 PUSH3 0x415 JUMP JUMPDEST SWAP2 POP PUSH3 0x461 PUSH1 0x20 DUP5 ADD PUSH3 0x415 JUMP JUMPDEST SWAP1 POP SWAP3 POP SWAP3 SWAP1 POP JUMP JUMPDEST PUSH4 0x4E487B71 PUSH1 0xE0 SHL PUSH1 0x0 MSTORE PUSH1 0x21 PUSH1 0x4 MSTORE PUSH1 0x24 PUSH1 0x0 REVERT JUMPDEST PUSH2 0xF02 DUP1 PUSH3 0x490 PUSH1 0x0 CODECOPY PUSH1 0x0 RETURN INVALID PUSH1 0x80 PUSH1 0x40 MSTORE CALLVALUE DUP1 ISZERO PUSH2 0x10 JUMPI PUSH1 0x0 DUP1 REVERT JUMPDEST POP PUSH1 0x4 CALLDATASIZE LT PUSH2 0x137 JUMPI PUSH1 0x0 CALLDATALOAD PUSH1 0xE0 SHR DUP1 PUSH4 0x715018A6 GT PUSH2 0xB8 JUMPI DUP1 PUSH4 0xAE445AEF GT PUSH2 0x7C JUMPI DUP1 PUSH4 0xAE445AEF EQ PUSH2 0x258 JUMPI DUP1 PUSH4 0xB05B32AE EQ PUSH2 0x26B JUMPI DUP1 PUSH4 0xD167ED71 EQ PUSH2 0x274 JUMPI DUP1 PUSH4 0xDC17B37C EQ PUSH2 0x287 JUMPI DUP1 PUSH4 0xF13E94BB EQ PUSH2 0x2A7 JUMPI DUP1 PUSH4 0xF2FDE38B EQ PUSH2 0x2AF JUMPI PUSH1 0x0 DUP1 REVERT JUMPDEST DUP1 PUSH4 0x715018A6 EQ PUSH2 0x214 JUMPI DUP1 PUSH4 0x7E95B523 EQ PUSH2 0x21C JUMPI DUP1 PUSH4 0x8DA5CB5B EQ PUSH2 0x22C JUMPI DUP1 PUSH4 0x8DAAAA2F EQ PUSH2 0x23D JUMPI DUP1 PUSH4 0xA5B6EA8F EQ PUSH2 0x245 JUMPI PUSH1 0x0 DUP1 REVERT JUMPDEST DUP1 PUSH4 0x2B65E040 GT PUSH2 0xFF JUMPI DUP1 PUSH4 0x2B65E040 EQ PUSH2 0x1B4 JUMPI DUP1 PUSH4 0x2E1A7D4D EQ PUSH2 0x1BD JUMPI DUP1 PUSH4 0x63EB9F90 EQ PUSH2 0x1D2 JUMPI DUP1 PUSH4 0x6540742F EQ PUSH2 0x1FD JUMPI DUP1 PUSH4 0x6A1C6E78 EQ PUSH2 0x20C JUMPI PUSH1 0x0 DUP1 REVERT JUMPDEST DUP1 PUSH4 0x143AF907 EQ PUSH2 0x13C JUMPI DUP1 PUSH4 0x1814ADD1 EQ PUSH2 0x16F JUMPI DUP1 PUSH4 0x2531455A EQ PUSH2 0x184 JUMPI DUP1 PUSH4 0x2AC488BC EQ PUSH2 0x18C JUMPI DUP1 PUSH4 0x2B603C71 EQ PUSH2 0x194 JUMPI JUMPDEST PUSH1 0x0 DUP1 REVERT JUMPDEST PUSH2 0x15C PUSH2 0x14A CALLDATASIZE PUSH1 0x4 PUSH2 0xCB3 JUMP JUMPDEST PUSH1 0x4 PUSH1 0x20 MSTORE PUSH1 0x0 SWAP1 DUP2 MSTORE PUSH1 0x40 SWAP1 KECCAK256 SLOAD DUP2 JUMP JUMPDEST PUSH1 0x40 MLOAD SWAP1 DUP2 MSTORE PUSH1 0x20 ADD JUMPDEST PUSH1 0x40 MLOAD DUP1 SWAP2 SUB SWAP1 RETURN JUMPDEST PUSH2 0x177 PUSH2 0x2C2 JUMP JUMPDEST PUSH1 0x40 MLOAD PUSH2 0x166 SWAP2 SWAP1 PUSH2 0xCF9 JUMP JUMPDEST PUSH1 0x6 SLOAD PUSH2 0x15C JUMP JUMPDEST PUSH2 0x15C PUSH1 0xA DUP2 JUMP JUMPDEST PUSH2 0x15C PUSH2 0x1A2 CALLDATASIZE PUSH1 0x4 PUSH2 0xCB3 JUMP JUMPDEST PUSH1 0x8 PUSH1 0x20 MSTORE PUSH1 0x0 SWAP1 DUP2 MSTORE PUSH1 0x40 SWAP1 KECCAK256 SLOAD DUP2 JUMP JUMPDEST PUSH2 0x15C PUSH1 0x6 SLOAD DUP2 JUMP JUMPDEST PUSH2 0x1D0 PUSH2 0x1CB CALLDATASIZE PUSH1 0x4 PUSH2 0xD89 JUMP JUMPDEST PUSH2 0x387 JUMP JUMPDEST STOP JUMPDEST PUSH1 0x2 SLOAD PUSH2 0x1E5 SWAP1 PUSH1 0x1 PUSH1 0x1 PUSH1 0xA0 SHL SUB AND DUP2 JUMP JUMPDEST PUSH1 0x40 MLOAD PUSH1 0x1 PUSH1 0x1 PUSH1 0xA0 SHL SUB SWAP1 SWAP2 AND DUP2 MSTORE PUSH1 0x20 ADD PUSH2 0x166 JUMP JUMPDEST PUSH2 0x15C PUSH8 0xDE0B6B3A7640000 DUP2 JUMP JUMPDEST PUSH2 0x15C PUSH1 0x2 DUP2 JUMP JUMPDEST PUSH2 0x1D0 PUSH2 0x4D4 JUMP JUMPDEST PUSH2 0x15C PUSH9 0x56BC75E2D63100000 DUP2 JUMP JUMPDEST PUSH1 0x0 SLOAD PUSH1 0x1 PUSH1 0x1 PUSH1 0xA0 SHL SUB AND PUSH2 0x1E5 JUMP JUMPDEST PUSH2 0x15C PUSH1 0x5 DUP2 JUMP JUMPDEST PUSH2 0x1D0 PUSH2 0x253 CALLDATASIZE PUSH1 0x4 PUSH2 0xD89 JUMP JUMPDEST PUSH2 0x4E8 JUMP JUMPDEST PUSH2 0x15C PUSH2 0x266 CALLDATASIZE PUSH1 0x4 PUSH2 0xD89 JUMP JUMPDEST PUSH2 0xAA5 JUMP JUMPDEST PUSH2 0x15C PUSH1 0x5 SLOAD DUP2 JUMP JUMPDEST PUSH2 0x1D0 PUSH2 0x282 CALLDATASIZE PUSH1 0x4 PUSH2 0xD89 JUMP JUMPDEST PUSH2 0xACE JUMP JUMPDEST PUSH2 0x15C PUSH2 0x295 CALLDATASIZE PUSH1 0x4 PUSH2 0xCB3 JUMP JUMPDEST PUSH1 0x7 PUSH1 0x20 MSTORE PUSH1 0x0 SWAP1 DUP2 MSTORE PUSH1 0x40 SWAP1 KECCAK256 SLOAD DUP2 JUMP JUMPDEST PUSH1 0x5 SLOAD PUSH2 0x15C JUMP JUMPDEST PUSH2 0x1D0 PUSH2 0x2BD CALLDATASIZE PUSH1 0x4 PUSH2 0xCB3 JUMP JUMPDEST PUSH2 0xBDA JUMP JUMPDEST PUSH1 0x60 PUSH1 0x3 DUP1 SLOAD DUP1 PUSH1 0x20 MUL PUSH1 0x20 ADD PUSH1 0x40 MLOAD SWAP1 DUP2 ADD PUSH1 0x40 MSTORE DUP1 SWAP3 SWAP2 SWAP1 DUP2 DUP2 MSTORE PUSH1 0x20 ADD PUSH1 0x0 SWAP1 JUMPDEST DUP3 DUP3 LT ISZERO PUSH2 0x37E JUMPI PUSH1 0x0 DUP5 DUP2 MSTORE PUSH1 0x20 SWAP1 KECCAK256 PUSH1 0x40 DUP1 MLOAD PUSH1 0xA0 DUP2 ADD DUP3 MSTORE SWAP2 PUSH1 0x2 DUP6 MUL ADD SWAP1 DUP3 SWAP1 DUP2 ADD DUP3 PUSH1 0x3 DUP3 DUP3 DUP3 PUSH1 0x20 MUL DUP3 ADD SWAP2 PUSH1 0x0 SWAP1 JUMPDEST DUP3 DUP3 SWAP1 SLOAD SWAP1 PUSH2 0x100 EXP SWAP1 DIV PUSH1 0xFF AND PUSH1 0x5 DUP2 GT ISZERO PUSH2 0x33B JUMPI PUSH2 0x33B PUSH2 0xCE3 JUMP JUMPDEST DUP2 MSTORE PUSH1 0x20 PUSH1 0x1 SWAP3 DUP4 ADD DUP2 DUP2 DIV SWAP5 DUP6 ADD SWAP5 SWAP1 SWAP4 SUB SWAP1 SWAP3 MUL SWAP2 ADD DUP1 DUP5 GT PUSH2 0x31C JUMPI SWAP1 POP POP POP POP POP POP DUP2 MSTORE PUSH1 0x20 ADD PUSH1 0x1 DUP3 ADD SLOAD DUP2 MSTORE POP POP DUP2 MSTORE PUSH1 0x20 ADD SWAP1 PUSH1 0x1 ADD SWAP1 PUSH2 0x2E6 JUMP JUMPDEST POP POP POP POP SWAP1 POP SWAP1 JUMP JUMPDEST PUSH2 0x38F PUSH2 0xC18 JUMP JUMPDEST PUSH1 0x6 SLOAD DUP2 GT ISZERO PUSH2 0x3E6 JUMPI PUSH1 0x40 MLOAD PUSH3 0x461BCD PUSH1 0xE5 SHL DUP2 MSTORE PUSH1 0x20 PUSH1 0x4 DUP3 ADD MSTORE PUSH1 0x17 PUSH1 0x24 DUP3 ADD MSTORE PUSH32 0x496E73756666696369656E74206F776E657220706F6F6C000000000000000000 PUSH1 0x44 DUP3 ADD MSTORE PUSH1 0x64 ADD JUMPDEST PUSH1 0x40 MLOAD DUP1 SWAP2 SUB SWAP1 REVERT JUMPDEST PUSH1 0x2 SLOAD PUSH1 0x1 PUSH1 0x1 PUSH1 0xA0 SHL SUB AND PUSH4 0xA9059CBB PUSH2 0x409 PUSH1 0x0 SLOAD PUSH1 0x1 PUSH1 0x1 PUSH1 0xA0 SHL SUB AND SWAP1 JUMP JUMPDEST PUSH1 0x40 MLOAD PUSH1 0x1 PUSH1 0x1 PUSH1 0xE0 SHL SUB NOT PUSH1 0xE0 DUP5 SWAP1 SHL AND DUP2 MSTORE PUSH1 0x1 PUSH1 0x1 PUSH1 0xA0 SHL SUB SWAP1 SWAP2 AND PUSH1 0x4 DUP3 ADD MSTORE PUSH1 0x24 DUP2 ADD DUP5 SWAP1 MSTORE PUSH1 0x44 ADD PUSH1 0x20 PUSH1 0x40 MLOAD DUP1 DUP4 SUB DUP2 PUSH1 0x0 DUP8 GAS CALL ISZERO DUP1 ISZERO PUSH2 0x456 JUMPI RETURNDATASIZE PUSH1 0x0 DUP1 RETURNDATACOPY RETURNDATASIZE PUSH1 0x0 REVERT JUMPDEST POP POP POP POP PUSH1 0x40 MLOAD RETURNDATASIZE PUSH1 0x1F NOT PUSH1 0x1F DUP3 ADD AND DUP3 ADD DUP1 PUSH1 0x40 MSTORE POP DUP2 ADD SWAP1 PUSH2 0x47A SWAP2 SWAP1 PUSH2 0xDA2 JUMP JUMPDEST PUSH2 0x4BA JUMPI PUSH1 0x40 MLOAD PUSH3 0x461BCD PUSH1 0xE5 SHL DUP2 MSTORE PUSH1 0x20 PUSH1 0x4 DUP3 ADD MSTORE PUSH1 0x11 PUSH1 0x24 DUP3 ADD MSTORE PUSH17 0x15DA5D1A191C985DD85B0819985A5B1959 PUSH1 0x7A SHL PUSH1 0x44 DUP3 ADD MSTORE PUSH1 0x64 ADD PUSH2 0x3DD JUMP JUMPDEST DUP1 PUSH1 0x6 PUSH1 0x0 DUP3 DUP3 SLOAD PUSH2 0x4CC SWAP2 SWAP1 PUSH2 0xDDA JUMP JUMPDEST SWAP1 SWAP2 SSTORE POP POP POP JUMP JUMPDEST PUSH2 0x4DC PUSH2 0xC18 JUMP JUMPDEST PUSH2 0x4E6 PUSH1 0x0 PUSH2 0xC45 JUMP JUMPDEST JUMP JUMPDEST PUSH1 0x2 PUSH1 0x1 SLOAD SUB PUSH2 0x53A JUMPI PUSH1 0x40 MLOAD PUSH3 0x461BCD PUSH1 0xE5 SHL DUP2 MSTORE PUSH1 0x20 PUSH1 0x4 DUP3 ADD MSTORE PUSH1 0x1F PUSH1 0x24 DUP3 ADD MSTORE PUSH32 0x5265656E7472616E637947756172643A207265656E7472616E742063616C6C00 PUSH1 0x44 DUP3 ADD MSTORE PUSH1 0x64 ADD PUSH2 0x3DD JUMP JUMPDEST PUSH1 0x2 PUSH1 0x1 SSTORE DUP1 PUSH2 0x596 JUMPI PUSH1 0x40 MLOAD PUSH3 0x461BCD PUSH1 0xE5 SHL DUP2 MSTORE PUSH1 0x20 PUSH1 0x4 DUP3 ADD MSTORE PUSH1 0x21 PUSH1 0x24 DUP3 ADD MSTORE PUSH32 0x42657420616D6F756E74206D7573742062652067726561746572207468616E20 PUSH1 0x44 DUP3 ADD MSTORE PUSH1 0x3 PUSH1 0xFC SHL PUSH1 0x64 DUP3 ADD MSTORE PUSH1 0x84 ADD PUSH2 0x3DD JUMP JUMPDEST PUSH1 0x2 SLOAD PUSH1 0x40 MLOAD PUSH4 0x23B872DD PUSH1 0xE0 SHL DUP2 MSTORE CALLER PUSH1 0x4 DUP3 ADD MSTORE ADDRESS PUSH1 0x24 DUP3 ADD MSTORE PUSH1 0x44 DUP2 ADD DUP4 SWAP1 MSTORE PUSH1 0x1 PUSH1 0x1 PUSH1 0xA0 SHL SUB SWAP1 SWAP2 AND SWAP1 PUSH4 0x23B872DD SWAP1 PUSH1 0x64 ADD PUSH1 0x20 PUSH1 0x40 MLOAD DUP1 DUP4 SUB DUP2 PUSH1 0x0 DUP8 GAS CALL ISZERO DUP1 ISZERO PUSH2 0x5ED JUMPI RETURNDATASIZE PUSH1 0x0 DUP1 RETURNDATACOPY RETURNDATASIZE PUSH1 0x0 REVERT JUMPDEST POP POP POP POP PUSH1 0x40 MLOAD RETURNDATASIZE PUSH1 0x1F NOT PUSH1 0x1F DUP3 ADD AND DUP3 ADD DUP1 PUSH1 0x40 MSTORE POP DUP2 ADD SWAP1 PUSH2 0x611 SWAP2 SWAP1 PUSH2 0xDA2 JUMP JUMPDEST PUSH2 0x655 JUMPI PUSH1 0x40 MLOAD PUSH3 0x461BCD PUSH1 0xE5 SHL DUP2 MSTORE PUSH1 0x20 PUSH1 0x4 DUP3 ADD MSTORE PUSH1 0x15 PUSH1 0x24 DUP3 ADD MSTORE PUSH21 0x151BDAD95B881D1C985B9CD9995C8819985A5B1959 PUSH1 0x5A SHL PUSH1 0x44 DUP3 ADD MSTORE PUSH1 0x64 ADD PUSH2 0x3DD JUMP JUMPDEST PUSH1 0x0 PUSH1 0x64 PUSH2 0x664 PUSH1 0x2 DUP5 PUSH2 0xDF3 JUMP JUMPDEST PUSH2 0x66E SWAP2 SWAP1 PUSH2 0xE20 JUMP JUMPDEST SWAP1 POP PUSH1 0x0 PUSH1 0x64 PUSH2 0x67F PUSH1 0xA DUP6 PUSH2 0xDF3 JUMP JUMPDEST PUSH2 0x689 SWAP2 SWAP1 PUSH2 0xE20 JUMP JUMPDEST SWAP1 POP PUSH1 0x0 PUSH1 0x64 PUSH2 0x69A PUSH1 0x5 DUP7 PUSH2 0xDF3 JUMP JUMPDEST PUSH2 0x6A4 SWAP2 SWAP1 PUSH2 0xE20 JUMP JUMPDEST SWAP1 POP DUP3 PUSH1 0x6 PUSH1 0x0 DUP3 DUP3 SLOAD PUSH2 0x6B8 SWAP2 SWAP1 PUSH2 0xE34 JUMP JUMPDEST SWAP3 POP POP DUP2 SWAP1 SSTORE POP DUP2 PUSH1 0x5 PUSH1 0x0 DUP3 DUP3 SLOAD PUSH2 0x6D1 SWAP2 SWAP1 PUSH2 0xE34 JUMP JUMPDEST SWAP1 SWAP2 SSTORE POP POP PUSH1 0x40 MLOAD DUP4 DUP2 MSTORE PUSH32 0xE2268C1FA6D6B5BBECAE96FA09CFFF04C4DA2304B1375CCC3E3BB7DA18E445CE SWAP1 PUSH1 0x20 ADD PUSH1 0x40 MLOAD DUP1 SWAP2 SUB SWAP1 LOG1 PUSH1 0x40 MLOAD DUP3 DUP2 MSTORE PUSH32 0x1105274119B8692822C85F4931165E2D0567A223BC70C1377453861E4355A9E0 SWAP1 PUSH1 0x20 ADD PUSH1 0x40 MLOAD DUP1 SWAP2 SUB SWAP1 LOG1 PUSH1 0x0 TIMESTAMP PREVRANDAO CALLER PUSH1 0x40 MLOAD PUSH1 0x20 ADD PUSH2 0x776 SWAP4 SWAP3 SWAP2 SWAP1 SWAP3 DUP4 MSTORE PUSH1 0x20 DUP4 ADD SWAP2 SWAP1 SWAP2 MSTORE PUSH1 0x60 SHL PUSH12 0xFFFFFFFFFFFFFFFFFFFFFFFF NOT AND PUSH1 0x40 DUP3 ADD MSTORE PUSH1 0x54 ADD SWAP1 JUMP JUMPDEST PUSH1 0x40 MLOAD PUSH1 0x20 DUP2 DUP4 SUB SUB DUP2 MSTORE SWAP1 PUSH1 0x40 MSTORE DUP1 MLOAD SWAP1 PUSH1 0x20 ADD KECCAK256 PUSH1 0x0 SHR SWAP1 POP PUSH2 0x799 PUSH2 0xC95 JUMP JUMPDEST PUSH1 0x0 DUP1 PUSH1 0x0 JUMPDEST PUSH1 0x3 DUP2 LT ISZERO PUSH2 0x7E9 JUMPI PUSH1 0x6 PUSH2 0x7B5 DUP3 PUSH1 0x8 PUSH2 0xDF3 JUMP JUMPDEST DUP7 SWAP1 SHR PUSH2 0x7C2 SWAP2 SWAP1 PUSH2 0xE47 JUMP JUMPDEST DUP5 DUP3 PUSH1 0x3 DUP2 LT PUSH2 0x7D4 JUMPI PUSH2 0x7D4 PUSH2 0xE5B JUMP JUMPDEST PUSH1 0xFF SWAP1 SWAP3 AND PUSH1 0x20 SWAP3 SWAP1 SWAP3 MUL ADD MSTORE PUSH1 0x1 ADD PUSH2 0x79F JUMP JUMPDEST POP PUSH1 0x20 DUP4 ADD MLOAD DUP4 MLOAD PUSH1 0xFF SWAP1 DUP2 AND SWAP2 AND EQ DUP1 ISZERO PUSH2 0x813 JUMPI POP PUSH1 0x40 DUP4 ADD MLOAD PUSH1 0x20 DUP5 ADD MLOAD PUSH1 0xFF SWAP1 DUP2 AND SWAP2 AND EQ JUMPDEST ISZERO PUSH2 0x8BA JUMPI POP DUP2 MLOAD PUSH1 0x1 SWAP1 PUSH1 0xFF AND PUSH1 0x0 SUB PUSH2 0x846 JUMPI PUSH1 0x64 PUSH2 0x835 DUP10 PUSH1 0xA PUSH2 0xDF3 JUMP JUMPDEST PUSH2 0x83F SWAP2 SWAP1 PUSH2 0xE20 JUMP JUMPDEST SWAP2 POP PUSH2 0x91A JUMP JUMPDEST DUP3 MLOAD PUSH1 0xFF AND PUSH1 0x1 SUB PUSH2 0x85F JUMPI PUSH1 0x64 PUSH2 0x835 DUP10 PUSH1 0xF PUSH2 0xDF3 JUMP JUMPDEST DUP3 MLOAD PUSH1 0xFF AND PUSH1 0x2 SUB PUSH2 0x87B JUMPI PUSH1 0x5 DUP1 SLOAD PUSH1 0x0 SWAP1 SWAP2 SSTORE SWAP2 POP PUSH2 0x91A JUMP JUMPDEST DUP3 MLOAD PUSH1 0xFF AND PUSH1 0x3 SUB PUSH2 0x894 JUMPI PUSH1 0x64 PUSH2 0x835 DUP10 PUSH1 0x14 PUSH2 0xDF3 JUMP JUMPDEST DUP3 MLOAD PUSH1 0xFF AND PUSH1 0x4 SUB PUSH2 0x8AD JUMPI PUSH1 0x64 PUSH2 0x835 DUP10 PUSH1 0x19 PUSH2 0xDF3 JUMP JUMPDEST PUSH1 0x64 PUSH2 0x835 DUP10 PUSH1 0x1E PUSH2 0xDF3 JUMP JUMPDEST PUSH1 0x20 DUP4 ADD MLOAD DUP4 MLOAD PUSH1 0xFF SWAP1 DUP2 AND SWAP2 AND EQ DUP1 PUSH2 0x8E2 JUMPI POP PUSH1 0x40 DUP4 ADD MLOAD PUSH1 0x20 DUP5 ADD MLOAD PUSH1 0xFF SWAP1 DUP2 AND SWAP2 AND EQ JUMPDEST DUP1 PUSH2 0x8F8 JUMPI POP PUSH1 0x40 DUP4 ADD MLOAD DUP4 MLOAD PUSH1 0xFF SWAP1 DUP2 AND SWAP2 AND EQ JUMPDEST ISZERO PUSH2 0x91A JUMPI POP PUSH1 0x1 PUSH1 0x64 PUSH2 0x90D DUP10 PUSH1 0x5 PUSH2 0xDF3 JUMP JUMPDEST PUSH2 0x917 SWAP2 SWAP1 PUSH2 0xE20 JUMP JUMPDEST SWAP2 POP JUMPDEST DUP1 ISZERO PUSH2 0x984 JUMPI CALLER PUSH1 0x0 SWAP1 DUP2 MSTORE PUSH1 0x4 PUSH1 0x20 MSTORE PUSH1 0x40 SWAP1 KECCAK256 SLOAD PUSH1 0x64 SWAP1 PUSH2 0x93D SWAP1 DUP5 PUSH2 0xDF3 JUMP JUMPDEST PUSH2 0x948 SWAP1 PUSH1 0x5 PUSH2 0xDF3 JUMP JUMPDEST PUSH2 0x952 SWAP2 SWAP1 PUSH2 0xE20 JUMP JUMPDEST PUSH2 0x95C SWAP1 DUP4 PUSH2 0xE34 JUMP JUMPDEST CALLER PUSH1 0x0 SWAP1 DUP2 MSTORE PUSH1 0x4 PUSH1 0x20 MSTORE PUSH1 0x40 DUP2 KECCAK256 DUP1 SLOAD SWAP3 SWAP5 POP SWAP1 PUSH2 0x97A DUP4 PUSH2 0xE71 JUMP JUMPDEST SWAP2 SWAP1 POP SSTORE POP PUSH2 0x995 JUMP JUMPDEST CALLER PUSH1 0x0 SWAP1 DUP2 MSTORE PUSH1 0x4 PUSH1 0x20 MSTORE PUSH1 0x40 DUP2 KECCAK256 SSTORE JUMPDEST DUP2 ISZERO PUSH2 0xA52 JUMPI PUSH1 0x2 SLOAD PUSH1 0x40 MLOAD PUSH4 0xA9059CBB PUSH1 0xE0 SHL DUP2 MSTORE CALLER PUSH1 0x4 DUP3 ADD MSTORE PUSH1 0x24 DUP2 ADD DUP5 SWAP1 MSTORE PUSH1 0x1 PUSH1 0x1 PUSH1 0xA0 SHL SUB SWAP1 SWAP2 AND SWAP1 PUSH4 0xA9059CBB SWAP1 PUSH1 0x44 ADD PUSH1 0x20 PUSH1 0x40 MLOAD DUP1 DUP4 SUB DUP2 PUSH1 0x0 DUP8 GAS CALL ISZERO DUP1 ISZERO PUSH2 0x9EC JUMPI RETURNDATASIZE PUSH1 0x0 DUP1 RETURNDATACOPY RETURNDATASIZE PUSH1 0x0 REVERT JUMPDEST POP POP POP POP PUSH1 0x40 MLOAD RETURNDATASIZE PUSH1 0x1F NOT PUSH1 0x1F DUP3 ADD AND DUP3 ADD DUP1 PUSH1 0x40 MSTORE POP DUP2 ADD SWAP1 PUSH2 0xA10 SWAP2 SWAP1 PUSH2 0xDA2 JUMP JUMPDEST PUSH2 0xA52 JUMPI PUSH1 0x40 MLOAD PUSH3 0x461BCD PUSH1 0xE5 SHL DUP2 MSTORE PUSH1 0x20 PUSH1 0x4 DUP3 ADD MSTORE PUSH1 0x13 PUSH1 0x24 DUP3 ADD MSTORE PUSH19 0x15DA5B881D1C985B9CD9995C8819985A5B1959 PUSH1 0x6A SHL PUSH1 0x44 DUP3 ADD MSTORE PUSH1 0x64 ADD PUSH2 0x3DD JUMP JUMPDEST CALLER PUSH1 0x1 PUSH1 0x1 PUSH1 0xA0 SHL SUB AND PUSH32 0x75D9296464C1EA8809CB4669516720DE6006BF47B8EBF665E9CB59CE6BEF67C1 DUP10 DUP6 DUP6 PUSH1 0x40 MLOAD PUSH2 0xA8F SWAP4 SWAP3 SWAP2 SWAP1 PUSH2 0xE8A JUMP JUMPDEST PUSH1 0x40 MLOAD DUP1 SWAP2 SUB SWAP1 LOG2 POP POP PUSH1 0x1 DUP1 SSTORE POP POP POP POP POP POP JUMP JUMPDEST PUSH1 0x3 DUP2 DUP2 SLOAD DUP2 LT PUSH2 0xAB5 JUMPI PUSH1 0x0 DUP1 REVERT JUMPDEST PUSH1 0x0 SWAP2 DUP3 MSTORE PUSH1 0x20 SWAP1 SWAP2 KECCAK256 PUSH1 0x1 PUSH1 0x2 SWAP1 SWAP3 MUL ADD ADD SLOAD SWAP1 POP DUP2 JUMP JUMPDEST PUSH1 0x2 SLOAD PUSH1 0x40 MLOAD PUSH4 0x23B872DD PUSH1 0xE0 SHL DUP2 MSTORE CALLER PUSH1 0x4 DUP3 ADD MSTORE ADDRESS PUSH1 0x24 DUP3 ADD MSTORE PUSH1 0x44 DUP2 ADD DUP4 SWAP1 MSTORE PUSH1 0x1 PUSH1 0x1 PUSH1 0xA0 SHL SUB SWAP1 SWAP2 AND SWAP1 PUSH4 0x23B872DD SWAP1 PUSH1 0x64 ADD PUSH1 0x20 PUSH1 0x40 MLOAD DUP1 DUP4 SUB DUP2 PUSH1 0x0 DUP8 GAS CALL ISZERO DUP1 ISZERO PUSH2 0xB25 JUMPI RETURNDATASIZE PUSH1 0x0 DUP1 RETURNDATACOPY RETURNDATASIZE PUSH1 0x0 REVERT JUMPDEST POP POP POP POP PUSH1 0x40 MLOAD RETURNDATASIZE PUSH1 0x1F NOT PUSH1 0x1F DUP3 ADD AND DUP3 ADD DUP1 PUSH1 0x40 MSTORE POP DUP2 ADD SWAP1 PUSH2 0xB49 SWAP2 SWAP1 PUSH2 0xDA2 JUMP JUMPDEST PUSH2 0xB8D JUMPI PUSH1 0x40 MLOAD PUSH3 0x461BCD PUSH1 0xE5 SHL DUP2 MSTORE PUSH1 0x20 PUSH1 0x4 DUP3 ADD MSTORE PUSH1 0x15 PUSH1 0x24 DUP3 ADD MSTORE PUSH21 0x151BDAD95B881D1C985B9CD9995C8819985A5B1959 PUSH1 0x5A SHL PUSH1 0x44 DUP3 ADD MSTORE PUSH1 0x64 ADD PUSH2 0x3DD JUMP JUMPDEST DUP1 PUSH1 0x5 PUSH1 0x0 DUP3 DUP3 SLOAD PUSH2 0xB9F SWAP2 SWAP1 PUSH2 0xE34 JUMP JUMPDEST SWAP1 SWAP2 SSTORE POP POP PUSH1 0x40 MLOAD DUP2 DUP2 MSTORE PUSH32 0x1105274119B8692822C85F4931165E2D0567A223BC70C1377453861E4355A9E0 SWAP1 PUSH1 0x20 ADD PUSH1 0x40 MLOAD DUP1 SWAP2 SUB SWAP1 LOG1 POP JUMP JUMPDEST PUSH2 0xBE2 PUSH2 0xC18 JUMP JUMPDEST PUSH1 0x1 PUSH1 0x1 PUSH1 0xA0 SHL SUB DUP2 AND PUSH2 0xC0C JUMPI PUSH1 0x40 MLOAD PUSH4 0x1E4FBDF7 PUSH1 0xE0 SHL DUP2 MSTORE PUSH1 0x0 PUSH1 0x4 DUP3 ADD MSTORE PUSH1 0x24 ADD PUSH2 0x3DD JUMP JUMPDEST PUSH2 0xC15 DUP2 PUSH2 0xC45 JUMP JUMPDEST POP JUMP JUMPDEST PUSH1 0x0 SLOAD PUSH1 0x1 PUSH1 0x1 PUSH1 0xA0 SHL SUB AND CALLER EQ PUSH2 0x4E6 JUMPI PUSH1 0x40 MLOAD PUSH4 0x118CDAA7 PUSH1 0xE0 SHL DUP2 MSTORE CALLER PUSH1 0x4 DUP3 ADD MSTORE PUSH1 0x24 ADD PUSH2 0x3DD JUMP JUMPDEST PUSH1 0x0 DUP1 SLOAD PUSH1 0x1 PUSH1 0x1 PUSH1 0xA0 SHL SUB DUP4 DUP2 AND PUSH1 0x1 PUSH1 0x1 PUSH1 0xA0 SHL SUB NOT DUP4 AND DUP2 OR DUP5 SSTORE PUSH1 0x40 MLOAD SWAP2 SWAP1 SWAP3 AND SWAP3 DUP4 SWAP2 PUSH32 0x8BE0079C531659141344CD1FD0A4F28419497F9722A3DAAFE3B4186F6B6457E0 SWAP2 SWAP1 LOG3 POP POP JUMP JUMPDEST PUSH1 0x40 MLOAD DUP1 PUSH1 0x60 ADD PUSH1 0x40 MSTORE DUP1 PUSH1 0x3 SWAP1 PUSH1 0x20 DUP3 MUL DUP1 CALLDATASIZE DUP4 CALLDATACOPY POP SWAP2 SWAP3 SWAP2 POP POP JUMP JUMPDEST PUSH1 0x0 PUSH1 0x20 DUP3 DUP5 SUB SLT ISZERO PUSH2 0xCC5 JUMPI PUSH1 0x0 DUP1 REVERT JUMPDEST DUP2 CALLDATALOAD PUSH1 0x1 PUSH1 0x1 PUSH1 0xA0 SHL SUB DUP2 AND DUP2 EQ PUSH2 0xCDC JUMPI PUSH1 0x0 DUP1 REVERT JUMPDEST SWAP4 SWAP3 POP POP POP JUMP JUMPDEST PUSH4 0x4E487B71 PUSH1 0xE0 SHL PUSH1 0x0 MSTORE PUSH1 0x21 PUSH1 0x4 MSTORE PUSH1 0x24 PUSH1 0x0 REVERT JUMPDEST PUSH1 0x20 DUP1 DUP3 MSTORE DUP3 MLOAD DUP3 DUP3 ADD DUP2 SWAP1 MSTORE PUSH1 0x0 SWAP2 SWAP1 DUP5 DUP3 ADD SWAP1 PUSH1 0x40 DUP6 ADD SWAP1 DUP5 JUMPDEST DUP2 DUP2 LT ISZERO PUSH2 0xD7D JUMPI DUP4 MLOAD DUP1 MLOAD DUP5 PUSH1 0x0 JUMPDEST PUSH1 0x3 DUP2 LT ISZERO PUSH2 0xD60 JUMPI DUP3 MLOAD PUSH1 0x6 DUP2 LT PUSH2 0xD4E JUMPI PUSH4 0x4E487B71 PUSH1 0xE0 SHL PUSH1 0x0 MSTORE PUSH1 0x21 PUSH1 0x4 MSTORE PUSH1 0x24 PUSH1 0x0 REVERT JUMPDEST DUP3 MSTORE SWAP2 DUP9 ADD SWAP2 SWAP1 DUP9 ADD SWAP1 PUSH1 0x1 ADD PUSH2 0xD25 JUMP JUMPDEST POP POP POP DUP6 ADD MLOAD PUSH1 0x60 DUP5 ADD MSTORE SWAP3 DUP5 ADD SWAP3 PUSH1 0x80 SWAP1 SWAP3 ADD SWAP2 PUSH1 0x1 ADD PUSH2 0xD15 JUMP JUMPDEST POP SWAP1 SWAP7 SWAP6 POP POP POP POP POP POP JUMP JUMPDEST PUSH1 0x0 PUSH1 0x20 DUP3 DUP5 SUB SLT ISZERO PUSH2 0xD9B JUMPI PUSH1 0x0 DUP1 REVERT JUMPDEST POP CALLDATALOAD SWAP2 SWAP1 POP JUMP JUMPDEST PUSH1 0x0 PUSH1 0x20 DUP3 DUP5 SUB SLT ISZERO PUSH2 0xDB4 JUMPI PUSH1 0x0 DUP1 REVERT JUMPDEST DUP2 MLOAD DUP1 ISZERO ISZERO DUP2 EQ PUSH2 0xCDC JUMPI PUSH1 0x0 DUP1 REVERT JUMPDEST PUSH4 0x4E487B71 PUSH1 0xE0 SHL PUSH1 0x0 MSTORE PUSH1 0x11 PUSH1 0x4 MSTORE PUSH1 0x24 PUSH1 0x0 REVERT JUMPDEST DUP2 DUP2 SUB DUP2 DUP2 GT ISZERO PUSH2 0xDED JUMPI PUSH2 0xDED PUSH2 0xDC4 JUMP JUMPDEST SWAP3 SWAP2 POP POP JUMP JUMPDEST DUP1 DUP3 MUL DUP2 ISZERO DUP3 DUP3 DIV DUP5 EQ OR PUSH2 0xDED JUMPI PUSH2 0xDED PUSH2 0xDC4 JUMP JUMPDEST PUSH4 0x4E487B71 PUSH1 0xE0 SHL PUSH1 0x0 MSTORE PUSH1 0x12 PUSH1 0x4 MSTORE PUSH1 0x24 PUSH1 0x0 REVERT JUMPDEST PUSH1 0x0 DUP3 PUSH2 0xE2F JUMPI PUSH2 0xE2F PUSH2 0xE0A JUMP JUMPDEST POP DIV SWAP1 JUMP JUMPDEST DUP1 DUP3 ADD DUP1 DUP3 GT ISZERO PUSH2 0xDED JUMPI PUSH2 0xDED PUSH2 0xDC4 JUMP JUMPDEST PUSH1 0x0 DUP3 PUSH2 0xE56 JUMPI PUSH2 0xE56 PUSH2 0xE0A JUMP JUMPDEST POP MOD SWAP1 JUMP JUMPDEST PUSH4 0x4E487B71 PUSH1 0xE0 SHL PUSH1 0x0 MSTORE PUSH1 0x32 PUSH1 0x4 MSTORE PUSH1 0x24 PUSH1 0x0 REVERT JUMPDEST PUSH1 0x0 PUSH1 0x1 DUP3 ADD PUSH2 0xE83 JUMPI PUSH2 0xE83 PUSH2 0xDC4 JUMP JUMPDEST POP PUSH1 0x1 ADD SWAP1 JUMP JUMPDEST DUP4 DUP2 MSTORE PUSH1 0xA0 DUP2 ADD PUSH1 0x20 DUP1 DUP4 ADD DUP6 PUSH1 0x0 JUMPDEST PUSH1 0x3 DUP2 LT ISZERO PUSH2 0xEBA JUMPI DUP2 MLOAD PUSH1 0xFF AND DUP4 MSTORE SWAP2 DUP4 ADD SWAP2 SWAP1 DUP4 ADD SWAP1 PUSH1 0x1 ADD PUSH2 0xE9A JUMP JUMPDEST POP POP POP POP DUP3 PUSH1 0x80 DUP4 ADD MSTORE SWAP5 SWAP4 POP POP POP POP JUMP INVALID LOG2 PUSH5 0x6970667358 0x22 SLT KECCAK256 DUP11 0x26 DUP16 0xAA MOD SWAP12 PUSH16 0x752AC237156D2BC594B577FC4EDD6D8A 0x29 0xC4 0xC DUP10 PUSH9 0xB2BC06EB64736F6C63 NUMBER STOP ADDMOD AND STOP CALLER 0xC2 JUMPI GAS 0xE SWAP15 MSIZE EXTCODECOPY STOP 0xF9 MSIZE 0xF8 0xC9 0x2F SLT 0xDB 0x28 PUSH10 0xC3395A3B0502D05E2516 PREVRANDAO PUSH16 0x71F85B00000000000000000000000000 "},"methodIdentifiers":{"HOUSE_EDGE()":"8daaaa2f","JACKPOT_POOL_PERCENTAGE()":"2ac488bc","MAX_BET()":"7e95b523","MIN_BET()":"6540742f","OWNER_SHARE()":"6a1c6e78","allowances(address)":"2b603c71","consecutiveWins(address)":"143af907","depositJackpot(uint256)":"d167ed71","getJackpotPool()":"f13e94bb","getOwnerPool()":"2531455a","getWinCombinations()":"1814add1","jackpotPool()":"b05b32ae","lastWinTime(address)":"dc17b37c","monToken()":"63eb9f90","owner()":"8da5cb5b","ownerPool()":"2b65e040","renounceOwnership()":"715018a6","spin(uint256)":"a5b6ea8f","transferOwnership(address)":"f2fde38b","winCombinations(uint256)":"ae445aef","withdraw(uint256)":"2e1a7d4d"}}}}}