{"contracts/UniswapV3PoolDeployer.sol":{"UniswapV3PoolDeployer":{"abi":[{"inputs":[],"name":"parameters","outputs":[{"internalType":"address","name":"factory","type":"address"},{"internalType":"address","name":"token0","type":"address"},{"internalType":"address","name":"token1","type":"address"},{"internalType":"uint24","name":"fee","type":"uint24"},{"internalType":"int24","name":"tickSpacing","type":"int24"}],"stateMutability":"view","type":"function"}],"evm":{"bytecode":{"linkReferences":{},"object":"6080604052348015600f57600080fd5b5060df8061001e6000396000f3fe6080604052348015600f57600080fd5b506004361060285760003560e01c80638903573014602d575b600080fd5b600054600154600280546067936001600160a01b03908116938116929082169162ffffff600160a01b82041691600160b81b909104900b85565b604080516001600160a01b0396871681529486166020860152929094168383015262ffffff16606083015260029290920b608082015290519081900360a00190f3fea26469706673582212207f7c64aff21178ca96402bea41c12086027f19f39d15e56fc5e4c98b47574b4764736f6c63430008160033","opcodes":"PUSH1 0x80 PUSH1 0x40 MSTORE CALLVALUE DUP1 ISZERO PUSH1 0xF JUMPI PUSH1 0x0 DUP1 REVERT JUMPDEST POP PUSH1 0xDF DUP1 PUSH2 0x1E PUSH1 0x0 CODECOPY PUSH1 0x0 RETURN INVALID PUSH1 0x80 PUSH1 0x40 MSTORE CALLVALUE DUP1 ISZERO PUSH1 0xF JUMPI PUSH1 0x0 DUP1 REVERT JUMPDEST POP PUSH1 0x4 CALLDATASIZE LT PUSH1 0x28 JUMPI PUSH1 0x0 CALLDATALOAD PUSH1 0xE0 SHR DUP1 PUSH4 0x89035730 EQ PUSH1 0x2D JUMPI JUMPDEST PUSH1 0x0 DUP1 REVERT JUMPDEST PUSH1 0x0 SLOAD PUSH1 0x1 SLOAD PUSH1 0x2 DUP1 SLOAD PUSH1 0x67 SWAP4 PUSH1 0x1 PUSH1 0x1 PUSH1 0xA0 SHL SUB SWAP1 DUP2 AND SWAP4 DUP2 AND SWAP3 SWAP1 DUP3 AND SWAP2 PUSH3 0xFFFFFF PUSH1 0x1 PUSH1 0xA0 SHL DUP3 DIV AND SWAP2 PUSH1 0x1 PUSH1 0xB8 SHL SWAP1 SWAP2 DIV SWAP1 SIGNEXTEND DUP6 JUMP JUMPDEST PUSH1 0x40 DUP1 MLOAD PUSH1 0x1 PUSH1 0x1 PUSH1 0xA0 SHL SUB SWAP7 DUP8 AND DUP2 MSTORE SWAP5 DUP7 AND PUSH1 0x20 DUP7 ADD MSTORE SWAP3 SWAP1 SWAP5 AND DUP4 DUP4 ADD MSTORE PUSH3 0xFFFFFF AND PUSH1 0x60 DUP4 ADD MSTORE PUSH1 0x2 SWAP3 SWAP1 SWAP3 SIGNEXTEND PUSH1 0x80 DUP3 ADD MSTORE SWAP1 MLOAD SWAP1 DUP2 SWAP1 SUB PUSH1 0xA0 ADD SWAP1 RETURN INVALID LOG2 PUSH5 0x6970667358 0x22 SLT KECCAK256 PUSH32 0x7C64AFF21178CA96402BEA41C12086027F19F39D15E56FC5E4C98B47574B4764 PUSH20 0x6F6C634300081600330000000000000000000000 "},"methodIdentifiers":{"parameters()":"89035730"}}}}}