{
  "_format": "hh-sol-artifact-1",
  "contractName": "AutoHunt",
  "sourceName": "contracts/AutoHunt.sol",
  "abi": [
    {
      "inputs": [
        {
          "internalType": "address",
          "name": "_gcToken",
          "type": "address"
        }
      ],
      "stateMutability": "nonpayable",
      "type": "constructor"
    },
    {
      "inputs": [
        {
          "internalType": "address",
          "name": "owner",
          "type": "address"
        }
      ],
      "name": "OwnableInvalidOwner",
      "type": "error"
    },
    {
      "inputs": [
        {
          "internalType": "address",
          "name": "account",
          "type": "address"
        }
      ],
      "name": "OwnableUnauthorizedAccount",
      "type": "error"
    },
    {
      "anonymous": false,
      "inputs": [
        {
          "indexed": true,
          "internalType": "address",
          "name": "player",
          "type": "address"
        }
      ],
      "name": "CharacterCreated",
      "type": "event"
    },
    {
      "anonymous": false,
      "inputs": [
        {
          "indexed": true,
          "internalType": "address",
          "name": "player",
          "type": "address"
        },
        {
          "indexed": false,
          "internalType": "uint256",
          "name": "exp",
          "type": "uint256"
        },
        {
          "indexed": false,
          "internalType": "uint256",
          "name": "gcReward",
          "type": "uint256"
        }
      ],
      "name": "HuntingReward",
      "type": "event"
    },
    {
      "anonymous": false,
      "inputs": [
        {
          "indexed": true,
          "internalType": "address",
          "name": "player",
          "type": "address"
        },
        {
          "indexed": false,
          "internalType": "uint256",
          "name": "newLevel",
          "type": "uint256"
        }
      ],
      "name": "LevelUp",
      "type": "event"
    },
    {
      "anonymous": false,
      "inputs": [
        {
          "indexed": true,
          "internalType": "address",
          "name": "previousOwner",
          "type": "address"
        },
        {
          "indexed": true,
          "internalType": "address",
          "name": "newOwner",
          "type": "address"
        }
      ],
      "name": "OwnershipTransferred",
      "type": "event"
    },
    {
      "anonymous": false,
      "inputs": [
        {
          "indexed": true,
          "internalType": "address",
          "name": "player",
          "type": "address"
        },
        {
          "indexed": false,
          "internalType": "uint256",
          "name": "monsterId",
          "type": "uint256"
        }
      ],
      "name": "StartedHunting",
      "type": "event"
    },
    {
      "inputs": [],
      "name": "EXP_PER_LEVEL",
      "outputs": [
        {
          "internalType": "uint256",
          "name": "",
          "type": "uint256"
        }
      ],
      "stateMutability": "view",
      "type": "function"
    },
    {
      "inputs": [],
      "name": "GC_PER_POWER",
      "outputs": [
        {
          "internalType": "uint256",
          "name": "",
          "type": "uint256"
        }
      ],
      "stateMutability": "view",
      "type": "function"
    },
    {
      "inputs": [],
      "name": "HUNT_COOLDOWN",
      "outputs": [
        {
          "internalType": "uint256",
          "name": "",
          "type": "uint256"
        }
      ],
      "stateMutability": "view",
      "type": "function"
    },
    {
      "inputs": [],
      "name": "POWER_PER_LEVEL",
      "outputs": [
        {
          "internalType": "uint256",
          "name": "",
          "type": "uint256"
        }
      ],
      "stateMutability": "view",
      "type": "function"
    },
    {
      "inputs": [
        {
          "internalType": "address",
          "name": "",
          "type": "address"
        }
      ],
      "name": "characters",
      "outputs": [
        {
          "internalType": "uint256",
          "name": "level",
          "type": "uint256"
        },
        {
          "internalType": "uint256",
          "name": "exp",
          "type": "uint256"
        },
        {
          "internalType": "uint256",
          "name": "power",
          "type": "uint256"
        },
        {
          "internalType": "uint256",
          "name": "lastHuntTime",
          "type": "uint256"
        },
        {
          "internalType": "bool",
          "name": "isHunting",
          "type": "bool"
        }
      ],
      "stateMutability": "view",
      "type": "function"
    },
    {
      "inputs": [
        {
          "internalType": "uint256",
          "name": "monsterId",
          "type": "uint256"
        }
      ],
      "name": "claimRewards",
      "outputs": [],
      "stateMutability": "nonpayable",
      "type": "function"
    },
    {
      "inputs": [],
      "name": "createCharacter",
      "outputs": [],
      "stateMutability": "nonpayable",
      "type": "function"
    },
    {
      "inputs": [],
      "name": "gcToken",
      "outputs": [
        {
          "internalType": "contract GameCoin",
          "name": "",
          "type": "address"
        }
      ],
      "stateMutability": "view",
      "type": "function"
    },
    {
      "inputs": [
        {
          "internalType": "address",
          "name": "player",
          "type": "address"
        }
      ],
      "name": "getCharacter",
      "outputs": [
        {
          "components": [
            {
              "internalType": "uint256",
              "name": "level",
              "type": "uint256"
            },
            {
              "internalType": "uint256",
              "name": "exp",
              "type": "uint256"
            },
            {
              "internalType": "uint256",
              "name": "power",
              "type": "uint256"
            },
            {
              "internalType": "uint256",
              "name": "lastHuntTime",
              "type": "uint256"
            },
            {
              "internalType": "bool",
              "name": "isHunting",
              "type": "bool"
            }
          ],
          "internalType": "struct AutoHunt.Character",
          "name": "",
          "type": "tuple"
        }
      ],
      "stateMutability": "view",
      "type": "function"
    },
    {
      "inputs": [],
      "name": "getMonsters",
      "outputs": [
        {
          "components": [
            {
              "internalType": "uint256",
              "name": "level",
              "type": "uint256"
            },
            {
              "internalType": "uint256",
              "name": "hp",
              "type": "uint256"
            },
            {
              "internalType": "uint256",
              "name": "exp",
              "type": "uint256"
            },
            {
              "internalType": "uint256",
              "name": "gcReward",
              "type": "uint256"
            }
          ],
          "internalType": "struct AutoHunt.Monster[]",
          "name": "",
          "type": "tuple[]"
        }
      ],
      "stateMutability": "view",
      "type": "function"
    },
    {
      "inputs": [
        {
          "internalType": "uint256",
          "name": "",
          "type": "uint256"
        }
      ],
      "name": "monsters",
      "outputs": [
        {
          "internalType": "uint256",
          "name": "level",
          "type": "uint256"
        },
        {
          "internalType": "uint256",
          "name": "hp",
          "type": "uint256"
        },
        {
          "internalType": "uint256",
          "name": "exp",
          "type": "uint256"
        },
        {
          "internalType": "uint256",
          "name": "gcReward",
          "type": "uint256"
        }
      ],
      "stateMutability": "view",
      "type": "function"
    },
    {
      "inputs": [],
      "name": "owner",
      "outputs": [
        {
          "internalType": "address",
          "name": "",
          "type": "address"
        }
      ],
      "stateMutability": "view",
      "type": "function"
    },
    {
      "inputs": [],
      "name": "renounceOwnership",
      "outputs": [],
      "stateMutability": "nonpayable",
      "type": "function"
    },
    {
      "inputs": [
        {
          "internalType": "uint256",
          "name": "monsterId",
          "type": "uint256"
        }
      ],
      "name": "startHunting",
      "outputs": [],
      "stateMutability": "nonpayable",
      "type": "function"
    },
    {
      "inputs": [
        {
          "internalType": "address",
          "name": "newOwner",
          "type": "address"
        }
      ],
      "name": "transferOwnership",
      "outputs": [],
      "stateMutability": "nonpayable",
      "type": "function"
    },
    {
      "inputs": [],
      "name": "withdrawEmergency",
      "outputs": [],
      "stateMutability": "nonpayable",
      "type": "function"
    }
  ],
  "bytecode": "0x608060405234801561001057600080fd5b5060405161120438038061120483398101604081905261002f916102ee565b338061005557604051631e4fbdf760e01b81526000600482015260240160405180910390fd5b61005e8161029e565b5080600160006101000a8154816001600160a01b0302191690836001600160a01b03160217905550600160028190555060046040518060800160405280600181526020016064815260200160648152602001670de0b6b3a76400008152509080600181540180825580915050600190039060005260206000209060040201600090919091909150600082015181600001556020820151816001015560408201518160020155606082015181600301555050600460405180608001604052806005815260200161012c815260200161012c81526020016729a2241af62c0000815250908060018154018082558091505060019003906000526020600020906004020160009091909190915060008201518160000155602082015181600101556040820151816002015560608201518160030155505060046040518060800160405280600a8152602001610258815260200161025881526020016753444835ec580000815250908060018154018082558091505060019003906000526020600020906004020160009091909190915060008201518160000155602082015181600101556040820151816002015560608201518160030155505060046040518060800160405280600f81526020016103e881526020016103e88152602001678ac7230489e8000081525090806001815401808255809150506001900390600052602060002090600402016000909190919091506000820151816000015560208201518160010155604082015181600201556060820151816003015550505061031e565b600080546001600160a01b038381166001600160a01b0319831681178455604051919092169283917f8be0079c531659141344cd1fd0a4f28419497f9722a3daafe3b4186f6b6457e09190a35050565b60006020828403121561030057600080fd5b81516001600160a01b038116811461031757600080fd5b9392505050565b610ed78061032d6000396000f3fe608060405234801561001057600080fd5b50600436106101005760003560e01c806397c2114f11610097578063ebd0c91c11610066578063ebd0c91c1461025d578063ebdfc2a6146102b4578063f2fde38b146102bc578063ff981b17146102cf57600080fd5b806397c2114f146101a3578063c0576b731461020e578063c604158314610241578063e447b0dc1461025457600080fd5b80635537f059116100d35780635537f0591461016b57806366fe84c514610173578063715018a61461018a5780638da5cb5b1461019257600080fd5b80630962ef7914610105578063319e77131461011a5780634146a0731461013857806347221a0814610140575b600080fd5b610118610113366004610d0f565b6102de565b005b610122610618565b60405161012f9190610d28565b60405180910390f35b61011861069f565b600154610153906001600160a01b031681565b6040516001600160a01b03909116815260200161012f565b6101186107fa565b61017c610e1081565b60405190815260200161012f565b6101186108ee565b6000546001600160a01b0316610153565b6101e46101b1366004610d8c565b60036020819052600091825260409091208054600182015460028301549383015460049093015491939092909160ff1685565b6040805195865260208601949094529284019190915260608301521515608082015260a00161012f565b61022161021c366004610d0f565b610902565b60408051948552602085019390935291830152606082015260800161012f565b61011861024f366004610d0f565b61093c565b61017c6103e881565b61027061026b366004610d8c565b610bc7565b60405161012f9190600060a0820190508251825260208301516020830152604083015160408301526060830151606083015260808301511515608083015292915050565b61017c600a81565b6101186102ca366004610d8c565b610c57565b61017c67016345785d8a000081565b60028054036103345760405162461bcd60e51b815260206004820152601f60248201527f5265656e7472616e637947756172643a207265656e7472616e742063616c6c0060448201526064015b60405180910390fd5b60028055336000908152600360205260409020600481015460ff166103895760405162461bcd60e51b815260206004820152600b60248201526a4e6f742068756e74696e6760a81b604482015260640161032b565b60045482106103cc5760405162461bcd60e51b815260206004820152600f60248201526e24b73b30b634b21036b7b739ba32b960891b604482015260640161032b565b6000600483815481106103e1576103e1610dbc565b9060005260206000209060040201604051806080016040529081600082015481526020016001820154815260200160028201548152602001600382015481525050905060008260030154426104369190610de8565b90506000600a846002015461044b9190610e01565b90506000610e10838386604001516104639190610e23565b61046d9190610e23565b6104779190610e01565b90506000610e108484876060015161048f9190610e23565b6104999190610e23565b6104a39190610e01565b9050818660010160008282546104b99190610e3a565b90915550505b85546104cd906103e8610e23565b86600101541061055f5785546104e5906103e8610e23565b8660010160008282546104f89190610de8565b9091555050855486600061050b83610e4d565b9091555050855461051e90600a90610e23565b6002870155855460405190815233907f91e51c29e7e87a74ad3b8ccba98538970f50a4309242735467f41e27c6b0fbac9060200160405180910390a26104bf565b600154604051634d24848760e11b8152336004820152602481018390526001600160a01b0390911690639a49090e90604401600060405180830381600087803b1580156105ab57600080fd5b505af11580156105bf573d6000803e3d6000fd5b5050505060048601805460ff19169055604080518381526020810183905233917f26fca34849b3b2bca81736b7011aa87268875ba524dccf3b072be018122e4453910160405180910390a2505060016002555050505050565b60606004805480602002602001604051908101604052809291908181526020016000905b8282101561069657838290600052602060002090600402016040518060800160405290816000820154815260200160018201548152602001600282015481526020016003820154815250508152602001906001019061063c565b50505050905090565b6106a7610c92565b6001546040516370a0823160e01b81523060048201526000916001600160a01b0316906370a0823190602401602060405180830381865afa1580156106f0573d6000803e3d6000fd5b505050506040513d601f19601f820116820180604052508101906107149190610e66565b6001549091506001600160a01b031663a9059cbb61073a6000546001600160a01b031690565b6040516001600160e01b031960e084901b1681526001600160a01b039091166004820152602481018490526044016020604051808303816000875af1158015610787573d6000803e3d6000fd5b505050506040513d601f19601f820116820180604052508101906107ab9190610e7f565b6107f75760405162461bcd60e51b815260206004820152601b60248201527f456d657267656e6379207769746864726177616c206661696c65640000000000604482015260640161032b565b50565b33600090815260036020526040902054156108575760405162461bcd60e51b815260206004820152601860248201527f43686172616374657220616c7265616479206578697374730000000000000000604482015260640161032b565b6040805160a081018252600180825260006020808401828152600a8587019081526060860184815260808701858152338087526003958690528987209851895593519688019690965590516002870155519185019190915591516004909301805460ff19169315159390931790925591517f535c409efd381df758a0d41e12e0e60196ff8220ee3d2cb79c6c7a7edcc489c59190a2565b6108f6610c92565b6109006000610cbf565b565b6004818154811061091257600080fd5b60009182526020909120600490910201805460018201546002830154600390930154919350919084565b600280540361098d5760405162461bcd60e51b815260206004820152601f60248201527f5265656e7472616e637947756172643a207265656e7472616e742063616c6c00604482015260640161032b565b6002805533600090815260036020526040902080546109ee5760405162461bcd60e51b815260206004820152601860248201527f43686172616374657220646f6573206e6f742065786973740000000000000000604482015260640161032b565b600481015460ff1615610a355760405162461bcd60e51b815260206004820152600f60248201526e416c72656164792068756e74696e6760881b604482015260640161032b565b6004548210610a785760405162461bcd60e51b815260206004820152600f60248201526e24b73b30b634b21036b7b739ba32b960891b604482015260640161032b565b610e108160030154610a8a9190610e3a565b421015610acc5760405162461bcd60e51b815260206004820152601060248201526f243ab73a34b7339031b7b7b63237bbb760811b604482015260640161032b565b600060048381548110610ae157610ae1610dbc565b90600052602060002090600402016040518060800160405290816000820154815260200160018201548152602001600282015481526020016003820154815250509050806000015182600001541015610b6c5760405162461bcd60e51b815260206004820152600d60248201526c4c6576656c20746f6f206c6f7760981b604482015260640161032b565b60048201805460ff1916600117905542600383015560405133907f774fcf41b1b903c2556604f36706228cc7302946272aca97b2827fdc2c0a801290610bb59086815260200190565b60405180910390a25050600160025550565b610bfb6040518060a00160405280600081526020016000815260200160008152602001600081526020016000151581525090565b506001600160a01b0316600090815260036020818152604092839020835160a0810185528154815260018201549281019290925260028101549382019390935290820154606082015260049091015460ff161515608082015290565b610c5f610c92565b6001600160a01b038116610c8957604051631e4fbdf760e01b81526000600482015260240161032b565b6107f781610cbf565b6000546001600160a01b031633146109005760405163118cdaa760e01b815233600482015260240161032b565b600080546001600160a01b038381166001600160a01b0319831681178455604051919092169283917f8be0079c531659141344cd1fd0a4f28419497f9722a3daafe3b4186f6b6457e09190a35050565b600060208284031215610d2157600080fd5b5035919050565b602080825282518282018190526000919060409081850190868401855b82811015610d7f57815180518552868101518786015285810151868601526060908101519085015260809093019290850190600101610d45565b5091979650505050505050565b600060208284031215610d9e57600080fd5b81356001600160a01b0381168114610db557600080fd5b9392505050565b634e487b7160e01b600052603260045260246000fd5b634e487b7160e01b600052601160045260246000fd5b81810381811115610dfb57610dfb610dd2565b92915050565b600082610e1e57634e487b7160e01b600052601260045260246000fd5b500490565b8082028115828204841417610dfb57610dfb610dd2565b80820180821115610dfb57610dfb610dd2565b600060018201610e5f57610e5f610dd2565b5060010190565b600060208284031215610e7857600080fd5b5051919050565b600060208284031215610e9157600080fd5b81518015158114610db557600080fdfea2646970667358221220cf664414ef15e03ea86e21e9647c45b15d08de53964170afbaeff95ff7b98edf64736f6c63430008160033",
  "linkReferences": {},
  "deployedLinkReferences": {}
}