{
  "_format": "hh-sol-artifact-1",
  "contractName": "SlotMachine",
  "sourceName": "contracts/SlotMachine.sol",
  "abi": [
    {
      "inputs": [
        {
          "internalType": "address",
          "name": "_monToken",
          "type": "address"
        },
        {
          "internalType": "address",
          "name": "initialOwner",
          "type": "address"
        }
      ],
      "stateMutability": "nonpayable",
      "type": "constructor"
    },
    {
      "inputs": [
        {
          "internalType": "address",
          "name": "owner",
          "type": "address"
        }
      ],
      "name": "OwnableInvalidOwner",
      "type": "error"
    },
    {
      "inputs": [
        {
          "internalType": "address",
          "name": "account",
          "type": "address"
        }
      ],
      "name": "OwnableUnauthorizedAccount",
      "type": "error"
    },
    {
      "anonymous": false,
      "inputs": [
        {
          "indexed": true,
          "internalType": "address",
          "name": "player",
          "type": "address"
        },
        {
          "indexed": false,
          "internalType": "uint256",
          "name": "amount",
          "type": "uint256"
        }
      ],
      "name": "Jackpot",
      "type": "event"
    },
    {
      "anonymous": false,
      "inputs": [
        {
          "indexed": false,
          "internalType": "uint256",
          "name": "amount",
          "type": "uint256"
        }
      ],
      "name": "JackpotPoolIncreased",
      "type": "event"
    },
    {
      "anonymous": false,
      "inputs": [
        {
          "indexed": false,
          "internalType": "uint256",
          "name": "amount",
          "type": "uint256"
        }
      ],
      "name": "OwnerPoolIncreased",
      "type": "event"
    },
    {
      "anonymous": false,
      "inputs": [
        {
          "indexed": true,
          "internalType": "address",
          "name": "previousOwner",
          "type": "address"
        },
        {
          "indexed": true,
          "internalType": "address",
          "name": "newOwner",
          "type": "address"
        }
      ],
      "name": "OwnershipTransferred",
      "type": "event"
    },
    {
      "anonymous": false,
      "inputs": [
        {
          "indexed": true,
          "internalType": "address",
          "name": "player",
          "type": "address"
        },
        {
          "indexed": false,
          "internalType": "uint256",
          "name": "betAmount",
          "type": "uint256"
        },
        {
          "indexed": false,
          "internalType": "uint8[3]",
          "name": "result",
          "type": "uint8[3]"
        },
        {
          "indexed": false,
          "internalType": "uint256",
          "name": "winAmount",
          "type": "uint256"
        }
      ],
      "name": "Spin",
      "type": "event"
    },
    {
      "inputs": [],
      "name": "HOUSE_EDGE",
      "outputs": [
        {
          "internalType": "uint256",
          "name": "",
          "type": "uint256"
        }
      ],
      "stateMutability": "view",
      "type": "function"
    },
    {
      "inputs": [],
      "name": "JACKPOT_POOL_PERCENTAGE",
      "outputs": [
        {
          "internalType": "uint256",
          "name": "",
          "type": "uint256"
        }
      ],
      "stateMutability": "view",
      "type": "function"
    },
    {
      "inputs": [],
      "name": "MAX_BET",
      "outputs": [
        {
          "internalType": "uint256",
          "name": "",
          "type": "uint256"
        }
      ],
      "stateMutability": "view",
      "type": "function"
    },
    {
      "inputs": [],
      "name": "MIN_BET",
      "outputs": [
        {
          "internalType": "uint256",
          "name": "",
          "type": "uint256"
        }
      ],
      "stateMutability": "view",
      "type": "function"
    },
    {
      "inputs": [],
      "name": "OWNER_SHARE",
      "outputs": [
        {
          "internalType": "uint256",
          "name": "",
          "type": "uint256"
        }
      ],
      "stateMutability": "view",
      "type": "function"
    },
    {
      "inputs": [
        {
          "internalType": "address",
          "name": "",
          "type": "address"
        }
      ],
      "name": "allowances",
      "outputs": [
        {
          "internalType": "uint256",
          "name": "",
          "type": "uint256"
        }
      ],
      "stateMutability": "view",
      "type": "function"
    },
    {
      "inputs": [
        {
          "internalType": "address",
          "name": "",
          "type": "address"
        }
      ],
      "name": "consecutiveWins",
      "outputs": [
        {
          "internalType": "uint256",
          "name": "",
          "type": "uint256"
        }
      ],
      "stateMutability": "view",
      "type": "function"
    },
    {
      "inputs": [
        {
          "internalType": "uint256",
          "name": "amount",
          "type": "uint256"
        }
      ],
      "name": "depositJackpot",
      "outputs": [],
      "stateMutability": "nonpayable",
      "type": "function"
    },
    {
      "inputs": [],
      "name": "getJackpotPool",
      "outputs": [
        {
          "internalType": "uint256",
          "name": "",
          "type": "uint256"
        }
      ],
      "stateMutability": "view",
      "type": "function"
    },
    {
      "inputs": [],
      "name": "getOwnerPool",
      "outputs": [
        {
          "internalType": "uint256",
          "name": "",
          "type": "uint256"
        }
      ],
      "stateMutability": "view",
      "type": "function"
    },
    {
      "inputs": [],
      "name": "getWinCombinations",
      "outputs": [
        {
          "components": [
            {
              "internalType": "enum SlotMachine.Symbol[3]",
              "name": "symbols",
              "type": "uint8[3]"
            },
            {
              "internalType": "uint256",
              "name": "multiplier",
              "type": "uint256"
            }
          ],
          "internalType": "struct SlotMachine.WinCombination[]",
          "name": "",
          "type": "tuple[]"
        }
      ],
      "stateMutability": "view",
      "type": "function"
    },
    {
      "inputs": [],
      "name": "jackpotPool",
      "outputs": [
        {
          "internalType": "uint256",
          "name": "",
          "type": "uint256"
        }
      ],
      "stateMutability": "view",
      "type": "function"
    },
    {
      "inputs": [
        {
          "internalType": "address",
          "name": "",
          "type": "address"
        }
      ],
      "name": "lastWinTime",
      "outputs": [
        {
          "internalType": "uint256",
          "name": "",
          "type": "uint256"
        }
      ],
      "stateMutability": "view",
      "type": "function"
    },
    {
      "inputs": [],
      "name": "monToken",
      "outputs": [
        {
          "internalType": "contract IERC20",
          "name": "",
          "type": "address"
        }
      ],
      "stateMutability": "view",
      "type": "function"
    },
    {
      "inputs": [],
      "name": "owner",
      "outputs": [
        {
          "internalType": "address",
          "name": "",
          "type": "address"
        }
      ],
      "stateMutability": "view",
      "type": "function"
    },
    {
      "inputs": [],
      "name": "ownerPool",
      "outputs": [
        {
          "internalType": "uint256",
          "name": "",
          "type": "uint256"
        }
      ],
      "stateMutability": "view",
      "type": "function"
    },
    {
      "inputs": [],
      "name": "renounceOwnership",
      "outputs": [],
      "stateMutability": "nonpayable",
      "type": "function"
    },
    {
      "inputs": [
        {
          "internalType": "uint256",
          "name": "betAmount",
          "type": "uint256"
        }
      ],
      "name": "spin",
      "outputs": [],
      "stateMutability": "nonpayable",
      "type": "function"
    },
    {
      "inputs": [
        {
          "internalType": "address",
          "name": "newOwner",
          "type": "address"
        }
      ],
      "name": "transferOwnership",
      "outputs": [],
      "stateMutability": "nonpayable",
      "type": "function"
    },
    {
      "inputs": [
        {
          "internalType": "uint256",
          "name": "",
          "type": "uint256"
        }
      ],
      "name": "winCombinations",
      "outputs": [
        {
          "internalType": "uint256",
          "name": "multiplier",
          "type": "uint256"
        }
      ],
      "stateMutability": "view",
      "type": "function"
    },
    {
      "inputs": [
        {
          "internalType": "uint256",
          "name": "amount",
          "type": "uint256"
        }
      ],
      "name": "withdraw",
      "outputs": [],
      "stateMutability": "nonpayable",
      "type": "function"
    }
  ],
  "bytecode": "0x60806040523480156200001157600080fd5b50604051620013b2380380620013b2833981016040819052620000349162000432565b806001600160a01b0381166200006457604051631e4fbdf760e01b81526000600482015260240160405180910390fd5b6200006f8162000303565b506001808055600280546001600160a01b0385166001600160a01b03199091161781556040805160a081018252600091810182815260608201839052608082018390528152600360208201819052805494850181559182905280519093909202600080516020620013928339815191520191620000ef9183919062000353565b506020918201516001918201556040805160a081018252908101828152606082018390526080820183905281526005928101929092526003805491820181556000819052825160029092026000805160206200139283398151915201916200015a9183919062000353565b506020918201516001918201556040805160a081018252600391810182815260608201839052608082018390528152600a9381019390935280549182018155600081905282516002909202600080516020620013928339815191520191620001c59183919062000353565b50602091909101516001909101556040805160a08101825260039181908101806004815260200160048152602001600490528152600760209182015282546001810184556000938452922081519192600202019062000228908290600362000353565b50602091909101516001909101556040805160a0810182526003918190810180600581526020016005815260200160059052815260046020918201528254600181018455600093845292208151919260020201906200028b908290600362000353565b50602091909101516001909101556040805160a081018252600391819081018060028152602001600281526020016002905281526064602091820152825460018101845560009384529220815191926002020190620002ee908290600362000353565b50602082015181600101555050505062000480565b600080546001600160a01b038381166001600160a01b0319831681178455604051919092169283917f8be0079c531659141344cd1fd0a4f28419497f9722a3daafe3b4186f6b6457e09190a35050565b600183019183908215620003ec5791602002820160005b83821115620003bb57835183826101000a81548160ff021916908360058111156200039957620003996200046a565b021790555092602001926001016020816000010492830192600103026200036a565b8015620003ea5782816101000a81549060ff0219169055600101602081600001049283019260010302620003bb565b505b50620003fa929150620003fe565b5090565b5b80821115620003fa5760008155600101620003ff565b80516001600160a01b03811681146200042d57600080fd5b919050565b600080604083850312156200044657600080fd5b620004518362000415565b9150620004616020840162000415565b90509250929050565b634e487b7160e01b600052602160045260246000fd5b610f0280620004906000396000f3fe608060405234801561001057600080fd5b50600436106101375760003560e01c8063715018a6116100b8578063ae445aef1161007c578063ae445aef14610258578063b05b32ae1461026b578063d167ed7114610274578063dc17b37c14610287578063f13e94bb146102a7578063f2fde38b146102af57600080fd5b8063715018a6146102145780637e95b5231461021c5780638da5cb5b1461022c5780638daaaa2f1461023d578063a5b6ea8f1461024557600080fd5b80632b65e040116100ff5780632b65e040146101b45780632e1a7d4d146101bd57806363eb9f90146101d25780636540742f146101fd5780636a1c6e781461020c57600080fd5b8063143af9071461013c5780631814add11461016f5780632531455a146101845780632ac488bc1461018c5780632b603c7114610194575b600080fd5b61015c61014a366004610cb3565b60046020526000908152604090205481565b6040519081526020015b60405180910390f35b6101776102c2565b6040516101669190610cf9565b60065461015c565b61015c600a81565b61015c6101a2366004610cb3565b60086020526000908152604090205481565b61015c60065481565b6101d06101cb366004610d89565b610387565b005b6002546101e5906001600160a01b031681565b6040516001600160a01b039091168152602001610166565b61015c670de0b6b3a764000081565b61015c600281565b6101d06104d4565b61015c68056bc75e2d6310000081565b6000546001600160a01b03166101e5565b61015c600581565b6101d0610253366004610d89565b6104e8565b61015c610266366004610d89565b610aa5565b61015c60055481565b6101d0610282366004610d89565b610ace565b61015c610295366004610cb3565b60076020526000908152604090205481565b60055461015c565b6101d06102bd366004610cb3565b610bda565b60606003805480602002602001604051908101604052809291908181526020016000905b8282101561037e576000848152602090206040805160a08101825291600285020190829081018260038282826020028201916000905b82829054906101000a900460ff16600581111561033b5761033b610ce3565b81526020600192830181810494850194909303909202910180841161031c57905050505050508152602001600182015481525050815260200190600101906102e6565b50505050905090565b61038f610c18565b6006548111156103e65760405162461bcd60e51b815260206004820152601760248201527f496e73756666696369656e74206f776e657220706f6f6c00000000000000000060448201526064015b60405180910390fd5b6002546001600160a01b031663a9059cbb6104096000546001600160a01b031690565b6040516001600160e01b031960e084901b1681526001600160a01b039091166004820152602481018490526044016020604051808303816000875af1158015610456573d6000803e3d6000fd5b505050506040513d601f19601f8201168201806040525081019061047a9190610da2565b6104ba5760405162461bcd60e51b815260206004820152601160248201527015da5d1a191c985dd85b0819985a5b1959607a1b60448201526064016103dd565b80600660008282546104cc9190610dda565b909155505050565b6104dc610c18565b6104e66000610c45565b565b60026001540361053a5760405162461bcd60e51b815260206004820152601f60248201527f5265656e7472616e637947756172643a207265656e7472616e742063616c6c0060448201526064016103dd565b6002600155806105965760405162461bcd60e51b815260206004820152602160248201527f42657420616d6f756e74206d7573742062652067726561746572207468616e206044820152600360fc1b60648201526084016103dd565b6002546040516323b872dd60e01b8152336004820152306024820152604481018390526001600160a01b03909116906323b872dd906064016020604051808303816000875af11580156105ed573d6000803e3d6000fd5b505050506040513d601f19601f820116820180604052508101906106119190610da2565b6106555760405162461bcd60e51b8152602060048201526015602482015274151bdad95b881d1c985b9cd9995c8819985a5b1959605a1b60448201526064016103dd565b60006064610664600284610df3565b61066e9190610e20565b90506000606461067f600a85610df3565b6106899190610e20565b90506000606461069a600586610df3565b6106a49190610e20565b905082600660008282546106b89190610e34565b9250508190555081600560008282546106d19190610e34565b90915550506040518381527fe2268c1fa6d6b5bbecae96fa09cfff04c4da2304b1375ccc3e3bb7da18e445ce9060200160405180910390a16040518281527f1105274119b8692822c85f4931165e2d0567a223bc70c1377453861e4355a9e09060200160405180910390a1600042443360405160200161077693929190928352602083019190915260601b6bffffffffffffffffffffffff1916604082015260540190565b6040516020818303038152906040528051906020012060001c9050610799610c95565b60008060005b60038110156107e95760066107b5826008610df3565b86901c6107c29190610e47565b8482600381106107d4576107d4610e5b565b60ff909216602092909202015260010161079f565b506020830151835160ff908116911614801561081357506040830151602084015160ff9081169116145b156108ba5750815160019060ff1660000361084657606461083589600a610df3565b61083f9190610e20565b915061091a565b825160ff1660010361085f57606461083589600f610df3565b825160ff1660020361087b57600580546000909155915061091a565b825160ff16600303610894576064610835896014610df3565b825160ff166004036108ad576064610835896019610df3565b606461083589601e610df3565b6020830151835160ff908116911614806108e257506040830151602084015160ff9081169116145b806108f857506040830151835160ff9081169116145b1561091a57506001606461090d896005610df3565b6109179190610e20565b91505b8015610984573360009081526004602052604090205460649061093d9084610df3565b610948906005610df3565b6109529190610e20565b61095c9083610e34565b33600090815260046020526040812080549294509061097a83610e71565b9190505550610995565b336000908152600460205260408120555b8115610a525760025460405163a9059cbb60e01b8152336004820152602481018490526001600160a01b039091169063a9059cbb906044016020604051808303816000875af11580156109ec573d6000803e3d6000fd5b505050506040513d601f19601f82011682018060405250810190610a109190610da2565b610a525760405162461bcd60e51b815260206004820152601360248201527215da5b881d1c985b9cd9995c8819985a5b1959606a1b60448201526064016103dd565b336001600160a01b03167f75d9296464c1ea8809cb4669516720de6006bf47b8ebf665e9cb59ce6bef67c1898585604051610a8f93929190610e8a565b60405180910390a2505060018055505050505050565b60038181548110610ab557600080fd5b6000918252602090912060016002909202010154905081565b6002546040516323b872dd60e01b8152336004820152306024820152604481018390526001600160a01b03909116906323b872dd906064016020604051808303816000875af1158015610b25573d6000803e3d6000fd5b505050506040513d601f19601f82011682018060405250810190610b499190610da2565b610b8d5760405162461bcd60e51b8152602060048201526015602482015274151bdad95b881d1c985b9cd9995c8819985a5b1959605a1b60448201526064016103dd565b8060056000828254610b9f9190610e34565b90915550506040518181527f1105274119b8692822c85f4931165e2d0567a223bc70c1377453861e4355a9e09060200160405180910390a150565b610be2610c18565b6001600160a01b038116610c0c57604051631e4fbdf760e01b8152600060048201526024016103dd565b610c1581610c45565b50565b6000546001600160a01b031633146104e65760405163118cdaa760e01b81523360048201526024016103dd565b600080546001600160a01b038381166001600160a01b0319831681178455604051919092169283917f8be0079c531659141344cd1fd0a4f28419497f9722a3daafe3b4186f6b6457e09190a35050565b60405180606001604052806003906020820280368337509192915050565b600060208284031215610cc557600080fd5b81356001600160a01b0381168114610cdc57600080fd5b9392505050565b634e487b7160e01b600052602160045260246000fd5b6020808252825182820181905260009190848201906040850190845b81811015610d7d57835180518460005b6003811015610d6057825160068110610d4e57634e487b7160e01b600052602160045260246000fd5b82529188019190880190600101610d25565b505050850151606084015292840192608090920191600101610d15565b50909695505050505050565b600060208284031215610d9b57600080fd5b5035919050565b600060208284031215610db457600080fd5b81518015158114610cdc57600080fd5b634e487b7160e01b600052601160045260246000fd5b81810381811115610ded57610ded610dc4565b92915050565b8082028115828204841417610ded57610ded610dc4565b634e487b7160e01b600052601260045260246000fd5b600082610e2f57610e2f610e0a565b500490565b80820180821115610ded57610ded610dc4565b600082610e5657610e56610e0a565b500690565b634e487b7160e01b600052603260045260246000fd5b600060018201610e8357610e83610dc4565b5060010190565b83815260a0810160208083018560005b6003811015610eba57815160ff1683529183019190830190600101610e9a565b5050505082608083015294935050505056fea26469706673582212208a268faa069b6f752ac237156d2bc594b577fc4edd6d8a29c40c8968b2bc06eb64736f6c63430008160033c2575a0e9e593c00f959f8c92f12db2869c3395a3b0502d05e2516446f71f85b",
  "linkReferences": {},
  "deployedLinkReferences": {}
}