{
  "_format": "hh-sol-artifact-1",
  "contractName": "Voting",
  "sourceName": "contracts/Voting.sol",
  "abi": [
    {
      "inputs": [
        {
          "internalType": "address",
          "name": "_monToken",
          "type": "address"
        },
        {
          "internalType": "uint256",
          "name": "_minVoteAmount",
          "type": "uint256"
        },
        {
          "internalType": "address",
          "name": "initialOwner",
          "type": "address"
        }
      ],
      "stateMutability": "nonpayable",
      "type": "constructor"
    },
    {
      "inputs": [
        {
          "internalType": "address",
          "name": "owner",
          "type": "address"
        }
      ],
      "name": "OwnableInvalidOwner",
      "type": "error"
    },
    {
      "inputs": [
        {
          "internalType": "address",
          "name": "account",
          "type": "address"
        }
      ],
      "name": "OwnableUnauthorizedAccount",
      "type": "error"
    },
    {
      "anonymous": false,
      "inputs": [
        {
          "indexed": true,
          "internalType": "address",
          "name": "previousOwner",
          "type": "address"
        },
        {
          "indexed": true,
          "internalType": "address",
          "name": "newOwner",
          "type": "address"
        }
      ],
      "name": "OwnershipTransferred",
      "type": "event"
    },
    {
      "anonymous": false,
      "inputs": [
        {
          "indexed": true,
          "internalType": "uint256",
          "name": "pollId",
          "type": "uint256"
        },
        {
          "indexed": false,
          "internalType": "string",
          "name": "title",
          "type": "string"
        },
        {
          "indexed": false,
          "internalType": "uint256",
          "name": "startTime",
          "type": "uint256"
        },
        {
          "indexed": false,
          "internalType": "uint256",
          "name": "endTime",
          "type": "uint256"
        }
      ],
      "name": "PollCreated",
      "type": "event"
    },
    {
      "anonymous": false,
      "inputs": [
        {
          "indexed": true,
          "internalType": "uint256",
          "name": "pollId",
          "type": "uint256"
        }
      ],
      "name": "PollEnded",
      "type": "event"
    },
    {
      "anonymous": false,
      "inputs": [
        {
          "indexed": true,
          "internalType": "uint256",
          "name": "pollId",
          "type": "uint256"
        },
        {
          "indexed": true,
          "internalType": "address",
          "name": "voter",
          "type": "address"
        },
        {
          "indexed": false,
          "internalType": "uint256",
          "name": "optionIndex",
          "type": "uint256"
        },
        {
          "indexed": false,
          "internalType": "uint256",
          "name": "amount",
          "type": "uint256"
        }
      ],
      "name": "Voted",
      "type": "event"
    },
    {
      "inputs": [
        {
          "internalType": "string",
          "name": "_title",
          "type": "string"
        },
        {
          "internalType": "string",
          "name": "_description",
          "type": "string"
        },
        {
          "internalType": "string[]",
          "name": "_options",
          "type": "string[]"
        },
        {
          "internalType": "uint256",
          "name": "_duration",
          "type": "uint256"
        }
      ],
      "name": "createPoll",
      "outputs": [],
      "stateMutability": "nonpayable",
      "type": "function"
    },
    {
      "inputs": [
        {
          "internalType": "uint256",
          "name": "_pollId",
          "type": "uint256"
        }
      ],
      "name": "endPoll",
      "outputs": [],
      "stateMutability": "nonpayable",
      "type": "function"
    },
    {
      "inputs": [
        {
          "internalType": "uint256",
          "name": "_pollId",
          "type": "uint256"
        }
      ],
      "name": "getPollResults",
      "outputs": [
        {
          "internalType": "string",
          "name": "title",
          "type": "string"
        },
        {
          "internalType": "string",
          "name": "description",
          "type": "string"
        },
        {
          "internalType": "string[]",
          "name": "options",
          "type": "string[]"
        },
        {
          "internalType": "uint256[]",
          "name": "votes",
          "type": "uint256[]"
        },
        {
          "internalType": "uint256",
          "name": "totalVotes",
          "type": "uint256"
        },
        {
          "internalType": "uint256",
          "name": "startTime",
          "type": "uint256"
        },
        {
          "internalType": "uint256",
          "name": "endTime",
          "type": "uint256"
        },
        {
          "internalType": "bool",
          "name": "isActive",
          "type": "bool"
        }
      ],
      "stateMutability": "view",
      "type": "function"
    },
    {
      "inputs": [],
      "name": "minVoteAmount",
      "outputs": [
        {
          "internalType": "uint256",
          "name": "",
          "type": "uint256"
        }
      ],
      "stateMutability": "view",
      "type": "function"
    },
    {
      "inputs": [],
      "name": "monToken",
      "outputs": [
        {
          "internalType": "contract IERC20",
          "name": "",
          "type": "address"
        }
      ],
      "stateMutability": "view",
      "type": "function"
    },
    {
      "inputs": [],
      "name": "owner",
      "outputs": [
        {
          "internalType": "address",
          "name": "",
          "type": "address"
        }
      ],
      "stateMutability": "view",
      "type": "function"
    },
    {
      "inputs": [],
      "name": "pollCount",
      "outputs": [
        {
          "internalType": "uint256",
          "name": "",
          "type": "uint256"
        }
      ],
      "stateMutability": "view",
      "type": "function"
    },
    {
      "inputs": [
        {
          "internalType": "uint256",
          "name": "",
          "type": "uint256"
        }
      ],
      "name": "polls",
      "outputs": [
        {
          "internalType": "string",
          "name": "title",
          "type": "string"
        },
        {
          "internalType": "string",
          "name": "description",
          "type": "string"
        },
        {
          "internalType": "uint256",
          "name": "totalVotes",
          "type": "uint256"
        },
        {
          "internalType": "uint256",
          "name": "startTime",
          "type": "uint256"
        },
        {
          "internalType": "uint256",
          "name": "endTime",
          "type": "uint256"
        },
        {
          "internalType": "bool",
          "name": "isActive",
          "type": "bool"
        }
      ],
      "stateMutability": "view",
      "type": "function"
    },
    {
      "inputs": [],
      "name": "renounceOwnership",
      "outputs": [],
      "stateMutability": "nonpayable",
      "type": "function"
    },
    {
      "inputs": [
        {
          "internalType": "address",
          "name": "newOwner",
          "type": "address"
        }
      ],
      "name": "transferOwnership",
      "outputs": [],
      "stateMutability": "nonpayable",
      "type": "function"
    },
    {
      "inputs": [
        {
          "internalType": "uint256",
          "name": "_pollId",
          "type": "uint256"
        },
        {
          "internalType": "uint256",
          "name": "_optionIndex",
          "type": "uint256"
        },
        {
          "internalType": "uint256",
          "name": "_amount",
          "type": "uint256"
        }
      ],
      "name": "vote",
      "outputs": [],
      "stateMutability": "nonpayable",
      "type": "function"
    },
    {
      "inputs": [],
      "name": "withdrawTokens",
      "outputs": [],
      "stateMutability": "nonpayable",
      "type": "function"
    }
  ],
  "bytecode": "0x60806040523480156200001157600080fd5b506040516200165938038062001659833981016040819052620000349162000108565b806001600160a01b0381166200006457604051631e4fbdf760e01b81526000600482015260240160405180910390fd5b6200006f816200009b565b5050600180546001600160a01b0319166001600160a01b03939093169290921790915560025562000149565b600080546001600160a01b038381166001600160a01b0319831681178455604051919092169283917f8be0079c531659141344cd1fd0a4f28419497f9722a3daafe3b4186f6b6457e09190a35050565b80516001600160a01b03811681146200010357600080fd5b919050565b6000806000606084860312156200011e57600080fd5b6200012984620000eb565b9250602084015191506200014060408501620000eb565b90509250925092565b61150080620001596000396000f3fe608060405234801561001057600080fd5b50600436106100b45760003560e01c80638f1b3219116100715780638f1b32191461014a5780639207891d14610161578063ac2f00741461016a578063ad0f04a91461018f578063f2fde38b146101a2578063f43b8778146101b557600080fd5b806333b4097b146100b957806363eb9f90146100e9578063715018a6146101145780638a6655d61461011e5780638d8f2adb146101315780638da5cb5b14610139575b600080fd5b6100cc6100c7366004610ef4565b6101c8565b6040516100e0989796959493929190610f8f565b60405180910390f35b6001546100fc906001600160a01b031681565b6040516001600160a01b0390911681526020016100e0565b61011c610475565b005b61011c61012c366004611051565b610489565b61011c61079d565b6000546001600160a01b03166100fc565b61015360025481565b6040519081526020016100e0565b61015360035481565b61017d610178366004610ef4565b610931565b6040516100e09695949392919061107d565b61011c61019d366004611181565b610a79565b61011c6101b0366004611291565b610c46565b61011c6101c3366004610ef4565b610c81565b6060806060806000806000806000600460008b81526020019081526020016000209050806000018160010182600201836003018460040154856005015486600601548760070160009054906101000a900460ff16878054610228906112c1565b80601f0160208091040260200160405190810160405280929190818152602001828054610254906112c1565b80156102a15780601f10610276576101008083540402835291602001916102a1565b820191906000526020600020905b81548152906001019060200180831161028457829003601f168201915b505050505097508680546102b4906112c1565b80601f01602080910402602001604051908101604052809291908181526020018280546102e0906112c1565b801561032d5780601f106103025761010080835404028352916020019161032d565b820191906000526020600020905b81548152906001019060200180831161031057829003601f168201915b5050505050965085805480602002602001604051908101604052809291908181526020016000905b82821015610401578382906000526020600020018054610374906112c1565b80601f01602080910402602001604051908101604052809291908181526020018280546103a0906112c1565b80156103ed5780601f106103c2576101008083540402835291602001916103ed565b820191906000526020600020905b8154815290600101906020018083116103d057829003601f168201915b505050505081526020019060010190610355565b5050505095508480548060200260200160405190810160405280929190818152602001828054801561045257602002820191906000526020600020905b81548152602001906001019080831161043e575b505050505094509850985098509850985098509850985050919395975091939597565b61047d610d6e565b6104876000610d9b565b565b6000838152600460205260409020600781015460ff166104e55760405162461bcd60e51b8152602060048201526012602482015271506f6c6c206973206e6f742061637469766560701b60448201526064015b60405180910390fd5b806005015442101580156104fd575080600601544211155b6105495760405162461bcd60e51b815260206004820152601760248201527f566f74696e6720706572696f642068617320656e64656400000000000000000060448201526064016104dc565b33600090815260088201602052604090205460ff161561059b5760405162461bcd60e51b815260206004820152600d60248201526c105b1c9958591e481d9bdd1959609a1b60448201526064016104dc565b600281015483106105df5760405162461bcd60e51b815260206004820152600e60248201526d24b73b30b634b21037b83a34b7b760911b60448201526064016104dc565b6002548210156106285760405162461bcd60e51b8152602060048201526014602482015273416d6f756e742062656c6f77206d696e696d756d60601b60448201526064016104dc565b6001546040516323b872dd60e01b8152336004820152306024820152604481018490526001600160a01b03909116906323b872dd906064016020604051808303816000875af115801561067f573d6000803e3d6000fd5b505050506040513d601f19601f820116820180604052508101906106a391906112fb565b6106e75760405162461bcd60e51b8152602060048201526015602482015274151bdad95b881d1c985b9cd9995c8819985a5b1959605a1b60448201526064016104dc565b818160030184815481106106fd576106fd61131d565b9060005260206000200160008282546107169190611349565b92505081905550818160040160008282546107319190611349565b909155505033600081815260088301602052604090819020805460ff191660011790555185907fb4c54afd73915f9f756c8dee39fe0b311937871a92261a47747f7a3d32f63a0c9061078f9087908790918252602082015260400190565b60405180910390a350505050565b6107a5610d6e565b6001546040516370a0823160e01b81523060048201526000916001600160a01b0316906370a0823190602401602060405180830381865afa1580156107ee573d6000803e3d6000fd5b505050506040513d601f19601f820116820180604052508101906108129190611362565b90506000811161085c5760405162461bcd60e51b81526020600482015260156024820152744e6f20746f6b656e7320746f20776974686472617760581b60448201526064016104dc565b6001546001600160a01b031663a9059cbb61087f6000546001600160a01b031690565b6040516001600160e01b031960e084901b1681526001600160a01b039091166004820152602481018490526044016020604051808303816000875af11580156108cc573d6000803e3d6000fd5b505050506040513d601f19601f820116820180604052508101906108f091906112fb565b61092e5760405162461bcd60e51b815260206004820152600f60248201526e151c985b9cd9995c8819985a5b1959608a1b60448201526064016104dc565b50565b60046020526000908152604090208054819061094c906112c1565b80601f0160208091040260200160405190810160405280929190818152602001828054610978906112c1565b80156109c55780601f1061099a576101008083540402835291602001916109c5565b820191906000526020600020905b8154815290600101906020018083116109a857829003601f168201915b5050505050908060010180546109da906112c1565b80601f0160208091040260200160405190810160405280929190818152602001828054610a06906112c1565b8015610a535780601f10610a2857610100808354040283529160200191610a53565b820191906000526020600020905b815481529060010190602001808311610a3657829003601f168201915b505050506004830154600584015460068501546007909501549394919390925060ff1686565b610a81610d6e565b600282511015610ad35760405162461bcd60e51b815260206004820152601b60248201527f4174206c656173742032206f7074696f6e73207265717569726564000000000060448201526064016104dc565b60008111610b235760405162461bcd60e51b815260206004820152601960248201527f4475726174696f6e206d75737420626520706f7369746976650000000000000060448201526064016104dc565b6003805460009182610b348361137b565b90915550600081815260046020526040902090915080610b5487826113e5565b5060018101610b6386826113e5565b508351610b799060028301906020870190610deb565b50835167ffffffffffffffff811115610b9457610b946110ca565b604051908082528060200260200182016040528015610bbd578160200160208202803683370190505b508051610bd4916003840191602090910190610e41565b504260058201819055610be8908490611349565b6006820181905560078201805460ff19166001179055600582015460405184927f6304d459a1238719da7fda0b776e00c855ba5850f0a7f634eca6f8e985e4509f92610c36928b92906114a5565b60405180910390a2505050505050565b610c4e610d6e565b6001600160a01b038116610c7857604051631e4fbdf760e01b8152600060048201526024016104dc565b61092e81610d9b565b610c89610d6e565b6000818152600460205260409020600781015460ff16610ce05760405162461bcd60e51b8152602060048201526012602482015271141bdb1b08185b1c9958591e48195b99195960721b60448201526064016104dc565b80600601544211610d335760405162461bcd60e51b815260206004820152601760248201527f566f74696e6720706572696f64206e6f7420656e64656400000000000000000060448201526064016104dc565b60078101805460ff1916905560405182907f14d4cfc1c2a6f37c8f97ad80fc12bd9d943ea6d4dd7684137850125597ce9bf790600090a25050565b6000546001600160a01b031633146104875760405163118cdaa760e01b81523360048201526024016104dc565b600080546001600160a01b038381166001600160a01b0319831681178455604051919092169283917f8be0079c531659141344cd1fd0a4f28419497f9722a3daafe3b4186f6b6457e09190a35050565b828054828255906000526020600020908101928215610e31579160200282015b82811115610e315782518290610e2190826113e5565b5091602001919060010190610e0b565b50610e3d929150610e88565b5090565b828054828255906000526020600020908101928215610e7c579160200282015b82811115610e7c578251825591602001919060010190610e61565b50610e3d929150610ea5565b80821115610e3d576000610e9c8282610eba565b50600101610e88565b5b80821115610e3d5760008155600101610ea6565b508054610ec6906112c1565b6000825580601f10610ed6575050565b601f01602090049060005260206000209081019061092e9190610ea5565b600060208284031215610f0657600080fd5b5035919050565b6000815180845260005b81811015610f3357602081850181015186830182015201610f17565b506000602082860101526020601f19601f83011685010191505092915050565b60008151808452602080850194506020840160005b83811015610f8457815187529582019590820190600101610f68565b509495945050505050565b6000610100808352610fa38184018c610f0d565b9050602083820381850152610fb8828c610f0d565b91508382036040850152818a518084528284019150828160051b850101838d0160005b8381101561100957601f19878403018552610ff7838351610f0d565b94860194925090850190600101610fdb565b5050868103606088015261101d818d610f53565b955050505050508560808301528460a08301528360c083015261104460e083018415159052565b9998505050505050505050565b60008060006060848603121561106657600080fd5b505081359360208301359350604090920135919050565b60c08152600061109060c0830189610f0d565b82810360208401526110a28189610f0d565b91505085604083015284606083015283608083015282151560a0830152979650505050505050565b634e487b7160e01b600052604160045260246000fd5b604051601f8201601f1916810167ffffffffffffffff81118282101715611109576111096110ca565b604052919050565b600082601f83011261112257600080fd5b813567ffffffffffffffff81111561113c5761113c6110ca565b61114f601f8201601f19166020016110e0565b81815284602083860101111561116457600080fd5b816020850160208301376000918101602001919091529392505050565b6000806000806080858703121561119757600080fd5b843567ffffffffffffffff808211156111af57600080fd5b6111bb88838901611111565b95506020915081870135818111156111d257600080fd5b6111de89828a01611111565b9550506040870135818111156111f357600080fd5b8701601f8101891361120457600080fd5b803582811115611216576112166110ca565b8060051b6112258582016110e0565b918252828101850191858101908c84111561123f57600080fd5b86850192505b8383101561127b5782358681111561125d5760008081fd5b61126b8e8983890101611111565b8352509186019190860190611245565b999c989b50989960600135985050505050505050565b6000602082840312156112a357600080fd5b81356001600160a01b03811681146112ba57600080fd5b9392505050565b600181811c908216806112d557607f821691505b6020821081036112f557634e487b7160e01b600052602260045260246000fd5b50919050565b60006020828403121561130d57600080fd5b815180151581146112ba57600080fd5b634e487b7160e01b600052603260045260246000fd5b634e487b7160e01b600052601160045260246000fd5b8082018082111561135c5761135c611333565b92915050565b60006020828403121561137457600080fd5b5051919050565b60006001820161138d5761138d611333565b5060010190565b601f8211156113e0576000816000526020600020601f850160051c810160208610156113bd5750805b601f850160051c820191505b818110156113dc578281556001016113c9565b5050505b505050565b815167ffffffffffffffff8111156113ff576113ff6110ca565b6114138161140d84546112c1565b84611394565b602080601f83116001811461144857600084156114305750858301515b600019600386901b1c1916600185901b1785556113dc565b600085815260208120601f198616915b8281101561147757888601518255948401946001909101908401611458565b50858210156114955787850151600019600388901b60f8161c191681555b5050505050600190811b01905550565b6060815260006114b86060830186610f0d565b6020830194909452506040015291905056fea26469706673582212208eb8bcf3a7412c1fec5054562601664d1728104ba9cdb9dce848cf16055f29f364736f6c63430008160033",
  "linkReferences": {},
  "deployedLinkReferences": {}
}