{
  "_format": "hh-sol-artifact-1",
  "contractName": "GameCoin",
  "sourceName": "contracts/GameCoin.sol",
  "abi": [
    {
      "inputs": [],
      "stateMutability": "nonpayable",
      "type": "constructor"
    },
    {
      "inputs": [],
      "name": "ECDSAInvalidSignature",
      "type": "error"
    },
    {
      "inputs": [
        {
          "internalType": "uint256",
          "name": "length",
          "type": "uint256"
        }
      ],
      "name": "ECDSAInvalidSignatureLength",
      "type": "error"
    },
    {
      "inputs": [
        {
          "internalType": "bytes32",
          "name": "s",
          "type": "bytes32"
        }
      ],
      "name": "ECDSAInvalidSignatureS",
      "type": "error"
    },
    {
      "inputs": [
        {
          "internalType": "address",
          "name": "spender",
          "type": "address"
        },
        {
          "internalType": "uint256",
          "name": "allowance",
          "type": "uint256"
        },
        {
          "internalType": "uint256",
          "name": "needed",
          "type": "uint256"
        }
      ],
      "name": "ERC20InsufficientAllowance",
      "type": "error"
    },
    {
      "inputs": [
        {
          "internalType": "address",
          "name": "sender",
          "type": "address"
        },
        {
          "internalType": "uint256",
          "name": "balance",
          "type": "uint256"
        },
        {
          "internalType": "uint256",
          "name": "needed",
          "type": "uint256"
        }
      ],
      "name": "ERC20InsufficientBalance",
      "type": "error"
    },
    {
      "inputs": [
        {
          "internalType": "address",
          "name": "approver",
          "type": "address"
        }
      ],
      "name": "ERC20InvalidApprover",
      "type": "error"
    },
    {
      "inputs": [
        {
          "internalType": "address",
          "name": "receiver",
          "type": "address"
        }
      ],
      "name": "ERC20InvalidReceiver",
      "type": "error"
    },
    {
      "inputs": [
        {
          "internalType": "address",
          "name": "sender",
          "type": "address"
        }
      ],
      "name": "ERC20InvalidSender",
      "type": "error"
    },
    {
      "inputs": [
        {
          "internalType": "address",
          "name": "spender",
          "type": "address"
        }
      ],
      "name": "ERC20InvalidSpender",
      "type": "error"
    },
    {
      "inputs": [
        {
          "internalType": "uint256",
          "name": "deadline",
          "type": "uint256"
        }
      ],
      "name": "ERC2612ExpiredSignature",
      "type": "error"
    },
    {
      "inputs": [
        {
          "internalType": "address",
          "name": "signer",
          "type": "address"
        },
        {
          "internalType": "address",
          "name": "owner",
          "type": "address"
        }
      ],
      "name": "ERC2612InvalidSigner",
      "type": "error"
    },
    {
      "inputs": [
        {
          "internalType": "address",
          "name": "account",
          "type": "address"
        },
        {
          "internalType": "uint256",
          "name": "currentNonce",
          "type": "uint256"
        }
      ],
      "name": "InvalidAccountNonce",
      "type": "error"
    },
    {
      "inputs": [],
      "name": "InvalidShortString",
      "type": "error"
    },
    {
      "inputs": [
        {
          "internalType": "address",
          "name": "owner",
          "type": "address"
        }
      ],
      "name": "OwnableInvalidOwner",
      "type": "error"
    },
    {
      "inputs": [
        {
          "internalType": "address",
          "name": "account",
          "type": "address"
        }
      ],
      "name": "OwnableUnauthorizedAccount",
      "type": "error"
    },
    {
      "inputs": [
        {
          "internalType": "string",
          "name": "str",
          "type": "string"
        }
      ],
      "name": "StringTooLong",
      "type": "error"
    },
    {
      "anonymous": false,
      "inputs": [
        {
          "indexed": true,
          "internalType": "address",
          "name": "owner",
          "type": "address"
        },
        {
          "indexed": true,
          "internalType": "address",
          "name": "spender",
          "type": "address"
        },
        {
          "indexed": false,
          "internalType": "uint256",
          "name": "value",
          "type": "uint256"
        }
      ],
      "name": "Approval",
      "type": "event"
    },
    {
      "anonymous": false,
      "inputs": [],
      "name": "EIP712DomainChanged",
      "type": "event"
    },
    {
      "anonymous": false,
      "inputs": [
        {
          "indexed": true,
          "internalType": "address",
          "name": "previousOwner",
          "type": "address"
        },
        {
          "indexed": true,
          "internalType": "address",
          "name": "newOwner",
          "type": "address"
        }
      ],
      "name": "OwnershipTransferred",
      "type": "event"
    },
    {
      "anonymous": false,
      "inputs": [
        {
          "indexed": true,
          "internalType": "address",
          "name": "from",
          "type": "address"
        },
        {
          "indexed": true,
          "internalType": "address",
          "name": "to",
          "type": "address"
        },
        {
          "indexed": false,
          "internalType": "uint256",
          "name": "value",
          "type": "uint256"
        }
      ],
      "name": "Transfer",
      "type": "event"
    },
    {
      "inputs": [],
      "name": "DOMAIN_SEPARATOR",
      "outputs": [
        {
          "internalType": "bytes32",
          "name": "",
          "type": "bytes32"
        }
      ],
      "stateMutability": "view",
      "type": "function"
    },
    {
      "inputs": [
        {
          "internalType": "address",
          "name": "owner",
          "type": "address"
        },
        {
          "internalType": "address",
          "name": "spender",
          "type": "address"
        }
      ],
      "name": "allowance",
      "outputs": [
        {
          "internalType": "uint256",
          "name": "",
          "type": "uint256"
        }
      ],
      "stateMutability": "view",
      "type": "function"
    },
    {
      "inputs": [
        {
          "internalType": "address",
          "name": "spender",
          "type": "address"
        },
        {
          "internalType": "uint256",
          "name": "value",
          "type": "uint256"
        }
      ],
      "name": "approve",
      "outputs": [
        {
          "internalType": "bool",
          "name": "",
          "type": "bool"
        }
      ],
      "stateMutability": "nonpayable",
      "type": "function"
    },
    {
      "inputs": [
        {
          "internalType": "address",
          "name": "account",
          "type": "address"
        }
      ],
      "name": "balanceOf",
      "outputs": [
        {
          "internalType": "uint256",
          "name": "",
          "type": "uint256"
        }
      ],
      "stateMutability": "view",
      "type": "function"
    },
    {
      "inputs": [],
      "name": "decimals",
      "outputs": [
        {
          "internalType": "uint8",
          "name": "",
          "type": "uint8"
        }
      ],
      "stateMutability": "view",
      "type": "function"
    },
    {
      "inputs": [],
      "name": "eip712Domain",
      "outputs": [
        {
          "internalType": "bytes1",
          "name": "fields",
          "type": "bytes1"
        },
        {
          "internalType": "string",
          "name": "name",
          "type": "string"
        },
        {
          "internalType": "string",
          "name": "version",
          "type": "string"
        },
        {
          "internalType": "uint256",
          "name": "chainId",
          "type": "uint256"
        },
        {
          "internalType": "address",
          "name": "verifyingContract",
          "type": "address"
        },
        {
          "internalType": "bytes32",
          "name": "salt",
          "type": "bytes32"
        },
        {
          "internalType": "uint256[]",
          "name": "extensions",
          "type": "uint256[]"
        }
      ],
      "stateMutability": "view",
      "type": "function"
    },
    {
      "inputs": [],
      "name": "gameContract",
      "outputs": [
        {
          "internalType": "address",
          "name": "",
          "type": "address"
        }
      ],
      "stateMutability": "view",
      "type": "function"
    },
    {
      "inputs": [
        {
          "internalType": "address",
          "name": "player",
          "type": "address"
        },
        {
          "internalType": "uint256",
          "name": "amount",
          "type": "uint256"
        }
      ],
      "name": "mintReward",
      "outputs": [],
      "stateMutability": "nonpayable",
      "type": "function"
    },
    {
      "inputs": [],
      "name": "name",
      "outputs": [
        {
          "internalType": "string",
          "name": "",
          "type": "string"
        }
      ],
      "stateMutability": "view",
      "type": "function"
    },
    {
      "inputs": [
        {
          "internalType": "address",
          "name": "owner",
          "type": "address"
        }
      ],
      "name": "nonces",
      "outputs": [
        {
          "internalType": "uint256",
          "name": "",
          "type": "uint256"
        }
      ],
      "stateMutability": "view",
      "type": "function"
    },
    {
      "inputs": [],
      "name": "owner",
      "outputs": [
        {
          "internalType": "address",
          "name": "",
          "type": "address"
        }
      ],
      "stateMutability": "view",
      "type": "function"
    },
    {
      "inputs": [
        {
          "internalType": "address",
          "name": "owner",
          "type": "address"
        },
        {
          "internalType": "address",
          "name": "spender",
          "type": "address"
        },
        {
          "internalType": "uint256",
          "name": "value",
          "type": "uint256"
        },
        {
          "internalType": "uint256",
          "name": "deadline",
          "type": "uint256"
        },
        {
          "internalType": "uint8",
          "name": "v",
          "type": "uint8"
        },
        {
          "internalType": "bytes32",
          "name": "r",
          "type": "bytes32"
        },
        {
          "internalType": "bytes32",
          "name": "s",
          "type": "bytes32"
        }
      ],
      "name": "permit",
      "outputs": [],
      "stateMutability": "nonpayable",
      "type": "function"
    },
    {
      "inputs": [],
      "name": "renounceOwnership",
      "outputs": [],
      "stateMutability": "nonpayable",
      "type": "function"
    },
    {
      "inputs": [
        {
          "internalType": "address",
          "name": "_gameContract",
          "type": "address"
        }
      ],
      "name": "setGameContract",
      "outputs": [],
      "stateMutability": "nonpayable",
      "type": "function"
    },
    {
      "inputs": [],
      "name": "symbol",
      "outputs": [
        {
          "internalType": "string",
          "name": "",
          "type": "string"
        }
      ],
      "stateMutability": "view",
      "type": "function"
    },
    {
      "inputs": [],
      "name": "totalSupply",
      "outputs": [
        {
          "internalType": "uint256",
          "name": "",
          "type": "uint256"
        }
      ],
      "stateMutability": "view",
      "type": "function"
    },
    {
      "inputs": [
        {
          "internalType": "address",
          "name": "to",
          "type": "address"
        },
        {
          "internalType": "uint256",
          "name": "value",
          "type": "uint256"
        }
      ],
      "name": "transfer",
      "outputs": [
        {
          "internalType": "bool",
          "name": "",
          "type": "bool"
        }
      ],
      "stateMutability": "nonpayable",
      "type": "function"
    },
    {
      "inputs": [
        {
          "internalType": "address",
          "name": "from",
          "type": "address"
        },
        {
          "internalType": "address",
          "name": "to",
          "type": "address"
        },
        {
          "internalType": "uint256",
          "name": "value",
          "type": "uint256"
        }
      ],
      "name": "transferFrom",
      "outputs": [
        {
          "internalType": "bool",
          "name": "",
          "type": "bool"
        }
      ],
      "stateMutability": "nonpayable",
      "type": "function"
    },
    {
      "inputs": [
        {
          "internalType": "address",
          "name": "newOwner",
          "type": "address"
        }
      ],
      "name": "transferOwnership",
      "outputs": [],
      "stateMutability": "nonpayable",
      "type": "function"
    }
  ],
  "bytecode": "0x6101606040523480156200001257600080fd5b50336040518060400160405280600881526020016723b0b6b2a1b7b4b760c11b81525080604051806040016040528060018152602001603160f81b8152506040518060400160405280600881526020016723b0b6b2a1b7b4b760c11b81525060405180604001604052806002815260200161474360f01b81525081600390816200009d9190620004b8565b506004620000ac8282620004b8565b50620000be91508390506005620001d2565b61012052620000cf816006620001d2565b61014052815160208084019190912060e052815190820120610100524660a0526200015d60e05161010051604080517f8b73c3c69bb8fe3d512ecc4cf759cc79239f7b179b0ffacaa9a75d522b39400f60208201529081019290925260608201524660808201523060a082015260009060c00160405160208183030381529060405280519060200120905090565b60805250503060c052506001600160a01b0381166200019757604051631e4fbdf760e01b8152600060048201526024015b60405180910390fd5b620001a2816200020b565b50620001cc33620001b66012600a62000697565b620001c690633b9aca00620006af565b6200025d565b62000755565b6000602083511015620001f257620001ea836200029b565b905062000205565b81620001ff8482620004b8565b5060ff90505b92915050565b600880546001600160a01b038381166001600160a01b0319831681179093556040519116919082907f8be0079c531659141344cd1fd0a4f28419497f9722a3daafe3b4186f6b6457e090600090a35050565b6001600160a01b038216620002895760405163ec442f0560e01b8152600060048201526024016200018e565b6200029760008383620002de565b5050565b600080829050601f81511115620002c9578260405163305a27a960e01b81526004016200018e9190620006c9565b8051620002d6826200071a565b179392505050565b6001600160a01b0383166200030d5780600260008282546200030191906200073f565b90915550620003819050565b6001600160a01b03831660009081526020819052604090205481811015620003625760405163391434e360e21b81526001600160a01b038516600482015260248101829052604481018390526064016200018e565b6001600160a01b03841660009081526020819052604090209082900390555b6001600160a01b0382166200039f57600280548290039055620003be565b6001600160a01b03821660009081526020819052604090208054820190555b816001600160a01b0316836001600160a01b03167fddf252ad1be2c89b69c2b068fc378daa952ba7f163c4a11628f55a4df523b3ef836040516200040491815260200190565b60405180910390a3505050565b634e487b7160e01b600052604160045260246000fd5b600181811c908216806200043c57607f821691505b6020821081036200045d57634e487b7160e01b600052602260045260246000fd5b50919050565b601f821115620004b3576000816000526020600020601f850160051c810160208610156200048e5750805b601f850160051c820191505b81811015620004af578281556001016200049a565b5050505b505050565b81516001600160401b03811115620004d457620004d462000411565b620004ec81620004e5845462000427565b8462000463565b602080601f8311600181146200052457600084156200050b5750858301515b600019600386901b1c1916600185901b178555620004af565b600085815260208120601f198616915b82811015620005555788860151825594840194600190910190840162000534565b5085821015620005745787850151600019600388901b60f8161c191681555b5050505050600190811b01905550565b634e487b7160e01b600052601160045260246000fd5b600181815b80851115620005db578160001904821115620005bf57620005bf62000584565b80851615620005cd57918102915b93841c93908002906200059f565b509250929050565b600082620005f45750600162000205565b81620006035750600062000205565b81600181146200061c5760028114620006275762000647565b600191505062000205565b60ff8411156200063b576200063b62000584565b50506001821b62000205565b5060208310610133831016604e8410600b84101617156200066c575081810a62000205565b6200067883836200059a565b80600019048211156200068f576200068f62000584565b029392505050565b6000620006a860ff841683620005e3565b9392505050565b808202811582820484141762000205576200020562000584565b60006020808352835180602085015260005b81811015620006f957858101830151858201604001528201620006db565b506000604082860101526040601f19601f8301168501019250505092915050565b805160208083015191908110156200045d5760001960209190910360031b1b16919050565b8082018082111562000205576200020562000584565b60805160a05160c05160e05161010051610120516101405161116b620007b060003960006109380152600061090b015260006108340152600061080c0152600061076701526000610791015260006107bb015261116b6000f3fe608060405234801561001057600080fd5b50600436106101215760003560e01c80637ecebe00116100ad578063a9059cbb11610071578063a9059cbb14610257578063d3f330091461026a578063d505accf1461027d578063dd62ed3e14610290578063f2fde38b146102c957600080fd5b80637ecebe00146101e957806384b0196e146101fc5780638da5cb5b1461021757806395d89b411461023c5780639a49090e1461024457600080fd5b8063313ce567116100f4578063313ce5671461018c5780633644e5151461019b578063405ebd4d146101a357806370a08231146101b8578063715018a6146101e157600080fd5b806306fdde0314610126578063095ea7b31461014457806318160ddd1461016757806323b872dd14610179575b600080fd5b61012e6102dc565b60405161013b9190610ece565b60405180910390f35b610157610152366004610f04565b61036e565b604051901515815260200161013b565b6002545b60405190815260200161013b565b610157610187366004610f2e565b610388565b6040516012815260200161013b565b61016b6103ac565b6101b66101b1366004610f6a565b6103bb565b005b61016b6101c6366004610f6a565b6001600160a01b031660009081526020819052604090205490565b6101b66103e5565b61016b6101f7366004610f6a565b6103f9565b610204610417565b60405161013b9796959493929190610f85565b6008546001600160a01b03165b6040516001600160a01b03909116815260200161013b565b61012e61045d565b6101b6610252366004610f04565b61046c565b610157610265366004610f04565b6104e5565b600954610224906001600160a01b031681565b6101b661028b36600461101e565b6104f3565b61016b61029e366004611091565b6001600160a01b03918216600090815260016020908152604080832093909416825291909152205490565b6101b66102d7366004610f6a565b61062d565b6060600380546102eb906110c4565b80601f0160208091040260200160405190810160405280929190818152602001828054610317906110c4565b80156103645780601f1061033957610100808354040283529160200191610364565b820191906000526020600020905b81548152906001019060200180831161034757829003601f168201915b5050505050905090565b60003361037c81858561066b565b60019150505b92915050565b60003361039685828561067d565b6103a18585856106fb565b506001949350505050565b60006103b661075a565b905090565b6103c3610885565b600980546001600160a01b0319166001600160a01b0392909216919091179055565b6103ed610885565b6103f760006108b2565b565b6001600160a01b038116600090815260076020526040812054610382565b60006060806000806000606061042b610904565b610433610931565b60408051600080825260208201909252600f60f81b9b939a50919850469750309650945092509050565b6060600480546102eb906110c4565b6009546001600160a01b031633146104d75760405162461bcd60e51b815260206004820152602360248201527f4f6e6c792067616d6520636f6e74726163742063616e206d696e74207265776160448201526272647360e81b60648201526084015b60405180910390fd5b6104e1828261095e565b5050565b60003361037c8185856106fb565b834211156105175760405163313c898160e11b8152600481018590526024016104ce565b60007f6e71edae12b1b97f4d1f60370fef10105fa2faae0126114a169c64845d6126c98888886105648c6001600160a01b0316600090815260076020526040902080546001810190915590565b6040805160208101969096526001600160a01b0394851690860152929091166060840152608083015260a082015260c0810186905260e00160405160208183030381529060405280519060200120905060006105bf82610994565b905060006105cf828787876109c1565b9050896001600160a01b0316816001600160a01b031614610616576040516325c0072360e11b81526001600160a01b0380831660048301528b1660248201526044016104ce565b6106218a8a8a61066b565b50505050505050505050565b610635610885565b6001600160a01b03811661065f57604051631e4fbdf760e01b8152600060048201526024016104ce565b610668816108b2565b50565b61067883838360016109ef565b505050565b6001600160a01b0383811660009081526001602090815260408083209386168352929052205460001981146106f557818110156106e657604051637dc7a0d960e11b81526001600160a01b038416600482015260248101829052604481018390526064016104ce565b6106f5848484840360006109ef565b50505050565b6001600160a01b03831661072557604051634b637e8f60e11b8152600060048201526024016104ce565b6001600160a01b03821661074f5760405163ec442f0560e01b8152600060048201526024016104ce565b610678838383610ac4565b6000306001600160a01b037f0000000000000000000000000000000000000000000000000000000000000000161480156107b357507f000000000000000000000000000000000000000000000000000000000000000046145b156107dd57507f000000000000000000000000000000000000000000000000000000000000000090565b6103b6604080517f8b73c3c69bb8fe3d512ecc4cf759cc79239f7b179b0ffacaa9a75d522b39400f60208201527f0000000000000000000000000000000000000000000000000000000000000000918101919091527f000000000000000000000000000000000000000000000000000000000000000060608201524660808201523060a082015260009060c00160405160208183030381529060405280519060200120905090565b6008546001600160a01b031633146103f75760405163118cdaa760e01b81523360048201526024016104ce565b600880546001600160a01b038381166001600160a01b0319831681179093556040519116919082907f8be0079c531659141344cd1fd0a4f28419497f9722a3daafe3b4186f6b6457e090600090a35050565b60606103b67f00000000000000000000000000000000000000000000000000000000000000006005610bee565b60606103b67f00000000000000000000000000000000000000000000000000000000000000006006610bee565b6001600160a01b0382166109885760405163ec442f0560e01b8152600060048201526024016104ce565b6104e160008383610ac4565b60006103826109a161075a565b8360405161190160f01b8152600281019290925260228201526042902090565b6000806000806109d388888888610c99565b9250925092506109e38282610d68565b50909695505050505050565b6001600160a01b038416610a195760405163e602df0560e01b8152600060048201526024016104ce565b6001600160a01b038316610a4357604051634a1406b160e11b8152600060048201526024016104ce565b6001600160a01b03808516600090815260016020908152604080832093871683529290522082905580156106f557826001600160a01b0316846001600160a01b03167f8c5be1e5ebec7d5bd14f71427d1e84f3dd0314c0f7b2291e5b200ac8c7c3b92584604051610ab691815260200190565b60405180910390a350505050565b6001600160a01b038316610aef578060026000828254610ae491906110fe565b90915550610b619050565b6001600160a01b03831660009081526020819052604090205481811015610b425760405163391434e360e21b81526001600160a01b038516600482015260248101829052604481018390526064016104ce565b6001600160a01b03841660009081526020819052604090209082900390555b6001600160a01b038216610b7d57600280548290039055610b9c565b6001600160a01b03821660009081526020819052604090208054820190555b816001600160a01b0316836001600160a01b03167fddf252ad1be2c89b69c2b068fc378daa952ba7f163c4a11628f55a4df523b3ef83604051610be191815260200190565b60405180910390a3505050565b606060ff8314610c0857610c0183610e21565b9050610382565b818054610c14906110c4565b80601f0160208091040260200160405190810160405280929190818152602001828054610c40906110c4565b8015610c8d5780601f10610c6257610100808354040283529160200191610c8d565b820191906000526020600020905b815481529060010190602001808311610c7057829003601f168201915b50505050509050610382565b600080807f7fffffffffffffffffffffffffffffff5d576e7357a4501ddfe92f46681b20a0841115610cd45750600091506003905082610d5e565b604080516000808252602082018084528a905260ff891692820192909252606081018790526080810186905260019060a0016020604051602081039080840390855afa158015610d28573d6000803e3d6000fd5b5050604051601f1901519150506001600160a01b038116610d5457506000925060019150829050610d5e565b9250600091508190505b9450945094915050565b6000826003811115610d7c57610d7c61111f565b03610d85575050565b6001826003811115610d9957610d9961111f565b03610db75760405163f645eedf60e01b815260040160405180910390fd5b6002826003811115610dcb57610dcb61111f565b03610dec5760405163fce698f760e01b8152600481018290526024016104ce565b6003826003811115610e0057610e0061111f565b036104e1576040516335e2f38360e21b8152600481018290526024016104ce565b60606000610e2e83610e60565b604080516020808252818301909252919250600091906020820181803683375050509182525060208101929092525090565b600060ff8216601f81111561038257604051632cd44ac360e21b815260040160405180910390fd5b6000815180845260005b81811015610eae57602081850181015186830182015201610e92565b506000602082860101526020601f19601f83011685010191505092915050565b602081526000610ee16020830184610e88565b9392505050565b80356001600160a01b0381168114610eff57600080fd5b919050565b60008060408385031215610f1757600080fd5b610f2083610ee8565b946020939093013593505050565b600080600060608486031215610f4357600080fd5b610f4c84610ee8565b9250610f5a60208501610ee8565b9150604084013590509250925092565b600060208284031215610f7c57600080fd5b610ee182610ee8565b60ff60f81b881681526000602060e06020840152610fa660e084018a610e88565b8381036040850152610fb8818a610e88565b606085018990526001600160a01b038816608086015260a0850187905284810360c08601528551808252602080880193509091019060005b8181101561100c57835183529284019291840191600101610ff0565b50909c9b505050505050505050505050565b600080600080600080600060e0888a03121561103957600080fd5b61104288610ee8565b965061105060208901610ee8565b95506040880135945060608801359350608088013560ff8116811461107457600080fd5b9699959850939692959460a0840135945060c09093013592915050565b600080604083850312156110a457600080fd5b6110ad83610ee8565b91506110bb60208401610ee8565b90509250929050565b600181811c908216806110d857607f821691505b6020821081036110f857634e487b7160e01b600052602260045260246000fd5b50919050565b8082018082111561038257634e487b7160e01b600052601160045260246000fd5b634e487b7160e01b600052602160045260246000fdfea2646970667358221220f540cd277f5a34d1d2dafb9728713a70af35c7d2de1575b62a2c249e1924dfee64736f6c63430008160033",
  "linkReferences": {},
  "deployedLinkReferences": {}
}